:100000000C94C8020C940F030C940F030C948B0EE9
:100010000C940F030C940F030C940F030C940F0318
:100020000C940F030C940F030C9422240C94F424CE
:100030000C94D91B0C940F030C940F030C940F0316
:100040000C940F030C940F030C940F030C940F03E8
:100050000C940F030C94321C0C940F030C940F039C
:100060000C940F030C940F030C940F030C940F03C8
:100070000C940F030C940F030C940F030C940F03B8
:100080000C940F030C940F030C940F030C940F03A8
:100090000C940F030C940F030C940F030C940F0398
:1000A0000C940F030C940F030C940F0367096A0957
:1000B0008A099B09A309AE09060A060A060AF40979
:1000C000F709B109B409B909C609D309D609DA098A
:1000D000E709D611D611081208125512731294139B
:1000E00094137E1213132413241384139413941360
:1000F0008D1334143414461446143D144614461417
:10010000461434143414421446144614421461251F
:100110008825802688258026D425F72580264E260A
:100120005D2623002200210020001F001E00350054
:100130001C001700150008001A0014002B002F00E7
:100140000A000900070016000400E0002C0005006A
:10015000190006001B001D00E1000000E300E200A2
:1001600029000000000000002300240025002600D4
:1001700027002D002E001C0018000C001200130098
:100180002F00300030000B000D000E000F00330078
:10019000340028001100100036003700380031000C
:1001A00000000151E6002A000000000000003F00AE
:1001B0003E003D003C003B003A0001000100010010
:1001C0000100010001000100010001000100010027
:1001D0000100010001000100010001000100010017
:1001E0000100010001000000010001000100000009
:1001F000000000003F004000410042004300440076
:1002000045000100010001000100010001000100A2
:1002100001004E004B0001000100010046000100FA
:100220005000510052004F004A004D0000000100F4
:1002300001004C000000000000000100010001006E
:1002400001000100010001000100010001000100A6
:100250000100010001000100010001000100010096
:100260000100010001000100010001000100010086
:10027000010000000100010001000000000000007A
:100280000100010001000100010001000100010066
:100290000100010001000100010001000100010056
:1002A0000100010001000100010001000100010046
:1002B0000100010001000100000001000100010037
:1002C0000000000000000100010001000100010029
:1002D0000100010001000100010001000100010016
:1002E0000100010001000100010001000100010006
:1002F00001000100010001000100010001000000F7
:1003000001000100010000000000000001000100E8
:1003100001000100010001000100010001000100D5
:1003200001000100010001000100010001000100C5
:1003300001000100010001000100010001000100B5
:1003400001000100000001000100010000000000A8
:10035000000000000000000000002A2B2800000020
:100360000000000000000000000000000029000064
:1003700000002C1E3420212224342627252E362D41
:100380003738271E1F202122232425263333362EDB
:1003900037381F0405060708090A0B0C0D0E0F104D
:1003A0001112131415161718191A1B1C1D2F313092
:1003B000232D350405060708090A0B0C0D0E0F1036
:1003C0001112131415161718191A1B1C1D2F313072
:1003D000354C00000000000000000000000000009C
:1003E0000000000000007E0F00D4FFFFFFC70000E8
:1003F00000780403300000001403730070006100F3
:10040000720072006F0077003800320000002C0389
:1004100041007400730075007300680069005F009C
:100420004D006F00720069006D006F0074006F0076
:100430005F00370034007400680000000403090402
:1004400009025B00030100A0FA0904000001030196
:100450000100092111010001224000070581030864
:10046000000A090401000203000000092111010033
:100470000122220007058203200001070503032053
:10048000000109040200010300000009211101001C
:10049000012281000705840320000A1201100100D7
:1004A00000000874DA61740100010203010660FFB4
:1004B0000961A1010962150026FF009520750881D8
:1004C000020963150026FF00952075089102C005FA
:1004D000010902A10185020901A1000509190129EB
:1004E00005150025019505750181029501750381AA
:1004F000010501093009311581257F9502750881B3
:100500000609381581257F950175088106050C0AB5
:1005100038021581257F950175088106C0C0050147
:100520000980A101850319012AB700150126B7002A
:10053000950175108100C0050C0901A10185041900
:10054000012AA002150126A002950175108100C0A4
:1005500005010906A101050719E029E71500250194
:10056000950875018102950175088101050719003B
:1005700029FF150026FF009506750881000508195A
:10058000012905950575019102950175039101C039
:1005900011241FBECFEFDAE0DEBFCDBF04B603FEED
:1005A00027C080917F0290918002A0918102B0913A
:1005B00082028730904BA740B04BD1F410927F025B
:1005C00010928002109281021092820214BE84B7AF
:1005D000877F84BF0FB6F894A895809160008861EA
:1005E00080936000109260000FBEE0E0F8E3099590
:1005F00011E0A0E0B1E0EAE5FEE402C005900D9252
:10060000A03AB107D9F722E0A0EAB1E001C01D92FB
:10061000AF37B207E1F70E94E7200C942B270C9428
:10062000000081E0089581E008950C94130308957B
:100630000C9417031F93CF93DF9300D000D01F9229
:10064000CDB7DEB749835A836B833091C20189816C
:100650009A81311114C0662359F0222349F00E9477
:100660005619182F682F89819A810E94FF1803C09C
:100670000E942A19182F69817A81812F04C00E9453
:10068000561969817A810F900F900F900F900F90FB
:10069000DF91CF911F910C94D80AFC01262F408145
:1006A00051816281738184810C941A03CF93DF930B
:1006B000EC0160E00E944D03BE01DF91CF910C94EC
:1006C0001803FF920F931F93CF93DF93E82FF0E06F
:1006D000EE5AFC4FF490C82FC695C695C695D0E04B
:1006E000FE01EE51FC4F0491877010E0082E02C00D
:1006F000159507950A94E2F701701127FE01EE5255
:10070000FC4FC491D0E002C0D595C7958A95E2F719
:10071000C170DD270115110519F081EE0E946D10E1
:10072000209719F086EE0E946D108F2D0E947F1188
:10073000CD2B19F086EE0E941711012B41F081EEAE
:10074000DF91CF911F910F91FF900C941711DF91C2
:10075000CF911F910F91FF900895EF92FF920F9309
:100760001F93CF93DF93EC01162F0AE08881882333
:1007700009F455C0813009F043C08981813041F4CA
:100780007E0182E0E80EF11C8A810E947F1109C07F
:10079000823049F47E01E2E0EE0EF11C8A810E9473
:1007A0006D10E7012FC0833041F47E01F2E0EF0EBF
:1007B000F11C8A810E941711F4CF843011F0219628
:1007C00021C02A81229680E090E030E02053310958
:1007D0002A30310558F4089FA001099F500D1124BB
:1007E000C901840F951F21962881EFCF009751F002
:1007F000EFE9FFE03197F1F700C000000197F6CF75
:100800000E9461032196812F882309F4AFCFEFE97D
:10081000FFE03197F1F700C000008150F5CFDF9184
:10082000CF911F910F91FF90EF90089560E00C948D
:10083000AD038F929F92AF92BF92CF92DF92EF92D1
:10084000FF920F931F936B017C0181E090E0A0E089
:10085000B0E04C015D0104C0880C991CAA1CBB1CB3
:100860004A95D2F7AC01BD0104C0440F551F661F65
:10087000771F2A95D2F7482959296A297B2904C06C
:10088000880F991FAA1FBB1F0A95D2F78A019B01E7
:100890000C211D212E213F214017510762077307AC
:1008A00039F4BC01CD016C297D298E299F290AC00C
:1008B00080959095A095B095BC01CD016C217D21CE
:1008C0008E219F211F910F91FF90EF90DF90CF908D
:1008D000BF90AF909F908F9008950F93382F262F41
:1008E000609128027091290280912A0290912B0236
:1008F000042F432F0E9419040F910C943B180E945F
:100900006B1C0E948E1A811102C00E942E1B0C9437
:10091000FB060C94F70608950E9422140E948B0493
:100920002FEF84E39CE0215080409040E1F700C02D
:1009300000000C94581C0F931F93CF93DF93EC018E
:1009400061E00E944D038C01BE010E9416098823BC
:1009500079F1BE01C8010E941503882349F1BE0147
:10096000C8010E94320C882319F1BE01C8010E94FF
:10097000840C8823E9F0BE01C8010E94AF0D8823D2
:10098000B9F08A81882369F001158CE5180731F0E8
:100990000E3D1C4531F40E942E1B0AC00E948C049F
:1009A00007C0CE01DF91CF911F910F910C941103DD
:1009B00080E0DF91CF911F910F91089508950C94DD
:1009C000DE0481E008950C94E104CF93C82F0E94C7
:1009D000DF048C2F0E94E304CF91089580E090E023
:1009E00008950895880F991FFC01EE50FC4F8591E2
:1009F00094910895CF93DF930E94D80A0E94120623
:100A0000EC018115904508F041C0C11580E4D8077C
:100A100008F0D1C0C83ED10510F5C03ED10508F0A0
:100A2000FDC0C83AD10578F4C53AD10508F0A2C096
:100A3000C130D10509F4F2C008F4EEC0C430D105CC
:100A400008F0ECC0E9C0CF3BD10508F49BC0C03C26
:100A5000D10508F4E1C0CE01805C91099EC0C115AA
:100A600090E2D90758F4C11521E0D20708F0D6C0AA
:100A7000C03FD10508F4D0C0D065D0C0C11580E317
:100A8000D80708F08EC0CE019F7087C0C11595E5CC
:100A9000D90708F043C0C11524E5D20708F0A2C069
:100AA000C11582E5D80708F5C11591E5D90708F009
:100AB00085C0CE0174E0969587957A95E1F78370AD
:100AC0009C2F937021E030E002C0220F331F9A95D3
:100AD000E2F73C68382BCF70C695C69580E2C89F78
:100AE000E0011124C22BD32B99C09E012370332720
:100AF0008C2F86958695C115D34508F064C0C1E05A
:100B0000D0E002C0CC0FDD1F2A95E2F720E2829FE1
:100B1000C0011124C82BD92BDC6880C0C11529E580
:100B2000D207A0F4C11588E5D80708F060C0C11548
:100B300096E5D90708F070C08C2F0E94A6068F7129
:100B4000C82FD0E0DC2FCC27D06268C0C1152AE5C1
:100B5000D20708F451C0CE0190568115904208F09A
:100B60005BC08D2F8F710E94A606DD27D0628F712A
:100B7000D82B54C0C55AD0E0C45BDE4FC881D0E04A
:100B8000D0644CC0C85AD0E0CC0FDD1FC25EDE4F2F
:100B90000990D881C02DD46441C00E94F204EC01B8
:100BA0003DC0CE019927D3FF03C0EC01D86C36C0FD
:100BB000EC01D06C33C0DF70D06A30C0DC2FCC27A2
:100BC000C16FD06A2BC0C1E0D0E002C0CC0FDD1FE6
:100BD0002A95E2F720E2829FC0011124C82BD92B6D
:100BE000DA681CC0DC2FCC27C46FD06A17C0DC2F9A
:100BF000CC27C06FD06A12C08C2F8F700E94A606BF
:100C000094E0D695C7959A95E1F7CF70D0E0DC2FA8
:100C1000CC27D069C82B02C0C0E0D0E0CE01DF9164
:100C2000CF9108958238910569F1B0F4813391052F
:100C300009F46DC048F48932910509F463C08A3221
:100C4000910509F469C008958533910509F455C0EB
:100C500089339105B9F00895833E910569F138F41F
:100C6000803E9105B1F0823E910509F10895863EDE
:100C70009105A9F1873E9105B9F1843E910509F0EE
:100C800064C023C02091700220FD4FC021FD4DC0E3
:100C900008958091700280FD44C08091710280FFB0
:100CA00044C08091700284FD42C083EE4DC08091AB
:100CB000700282FF38C0F5CF8091700282FD33C090
:100CC0008091710280FD31C0ECCF8091710281FF73
:100CD00032C08091700284FD2AC087EE35C08091B9
:100CE000700283FF26C0F5CF8091700283FD21C082
:100CF0008091710281FD1FC0ECCF8091700285FD53
:100D00001CC01DC08091700285FD19C016C0809165
:100D1000700286FD16C017C08091700286FD13C058
:100D200010C089E311C082EE0FC080EE0DC080E0DC
:100D30000BC086EE09C084EE07C089E205C085E3DA
:100D400003C08AE201C081E390E0089590917002AF
:100D500092FF0DC0282F2871283019F4877F8460F6
:100D600006C0282F2471243011F48B7F886093FFF4
:100D70000DC0282F2871283119F4877E846106C0A0
:100D8000282F2471243111F48B7E88612091710207
:100D900020FF0DC0382F3871383019F4877F8160FB
:100DA00006C0382F3171313011F48E7F886021FFF9
:100DB0000DC0282F2871283119F4877E816106C063
:100DC000282F2171213111F48E7E886194FD877E58
:100DD0000895E82FF0E0E05AFD4F808108950895CE
:100DE00080EA8A95F1F7089508950C94F4060C941E
:100DF000F5060C94F4060C94F9060895CF93DF934E
:100E00000E9472088091000180910001811102C04E
:100E100095E001C090E090936B0285E0891B809380
:100E20006A02A6E5B1E04BE551E061E070E08D912A
:100E3000E82FE295EF70F0E021A18F70EB0102C086
:100E4000CC0FDD1F8A95E2F7CE019C2F909592235F
:100E500091A392A1892B82A34A175B0741F7AFE4C4
:100E6000B1E046E551E061E070E08D91E82FE29558
:100E7000EF70F0E021A18F70EB0102C0CC0FDD1FFD
:100E80008A95E2F7CE019C2F9095922391A392A18F
:100E9000892B82A34A175B0741F7E6E5F2E0A0E65B
:100EA000B2E080E692E011921D928E179F07D9F76B
:100EB00085E00E9418080E947F04DF91CF910C9476
:100EC0007C080E945508882309F180916A0290E00D
:100ED000805A9D4F0E948F08811114C08091A001FB
:100EE0008F5F8093A001863078F0E0916A02F0E095
:100EF000E05AFD4F80E090E0119201968530910517
:100F0000D9F702C01092A0010C94890480916B0261
:100F100090E0805A9D4F0E94AA080C94FD066F92A3
:100F20007F928F929F92AF92BF92CF92DF92EF9279
:100F3000FF920F931F93CF93DF9386E5882E81E076
:100F4000982E06E512E09BE5A92E92E0B92E712CB1
:100F5000CC24C394D12CF40181914F01C82FC295A8
:100F6000CF70D0E099A18F70760101C0EE0C8A9508
:100F7000EAF7892F8E2989A38AA16E2C6094862195
:100F80008AA30E94F006EFE4F1E040E050E020E0A8
:100F90003191A32FA295AF70B0E090968C9190E024
:100FA0003F7002C0959587953A95E2F780FD07C09E
:100FB0008C2D042E01C0880F0A94EAF701C080E04E
:100FC000282B4F5F5F4F4730510511F789A16822E9
:100FD00069A28AA1E82AEAA2F8018081281719F0FB
:100FE000208381E001C080E0782A0F5F1F4FA016A8
:100FF000B10609F0B0CF60916B0270E0605A7D4F8E
:10100000272D45E086E592E00E9419080E946107BD
:10101000872DDF91CF911F910F91FF90EF90DF907F
:10102000CF90BF90AF909F908F907F906F900895DA
:101030000895FF920F931F93CF93DF938C01F62EA9
:10104000D72FC42F222349F081E08093A3010E946F
:101050000B1C9093A2018093A1018091A30188238E
:10106000C1F08091A1019091A2010E94231C0697DA
:1010700080F0EF2DFD2FD8014C2F50E0CD01801BCB
:10108000910B841795071CF48D918193F7CF1092E3
:10109000A301DF91CF911F910F91FF900895849844
:1010A0008C988FB18295817008958091A4018111EF
:1010B00012C08091D80080618093D8008AE18A951F
:1010C000F1F700C08091D90080FD02C082E001C02C
:1010D00081E08093A40181E09091A401913009F016
:1010E00080E008950E944F08809300010E945508F7
:1010F00081110C94830808950E945508811102C043
:101100000C948908089561E070E081E091E00C940E
:101110003D0E61E070E081E091E00C94440ECF93CD
:10112000DF93D82FC92F0E94DC0E892B79F4ED2F85
:10113000FC2F80E090E0DC01AA55BE4F2C9121935A
:10114000019685309105B9F781E001C080E0DF911B
:10115000CF91089520E030E0FC014191CF01F901E9
:10116000EA55FE4F40832F5F3F4F25303105A1F7F1
:10117000089582E290E00E94E926803281F483E2C1
:1011800090E00E94E926813151F484E290E00E94CF
:10119000E92691E0883209F090E0892F01C080E0D3
:1011A00081700895CF93C82F811102C06FEF01C0E5
:1011B00060E282E290E00E94F726C11102C06FEF68
:1011C00001C061E183E290E00E94F726C11102C0F4
:1011D0006FEF01C068E284E290E0CF910C94F726B3
:1011E00080E00E94D2080C94881A089585E290E06D
:1011F0000E94E926682F70E080E090E0089585E283
:1012000090E00C94F7260E94F5080E94B90881111D
:101210000CC060E070E0CB010E94FF080E94530AFE
:101220000E94320B81E00C94D2080895CF93FB0109
:10123000C281CC23E9F09C0122513F452031310588
:1012400020F482510E94420B0CC08031FFE59F07C1
:1012500051F481E00E94611843E062E081E00E9465
:101260006D04C0E018C081319F45A9F482E0F2CF3F
:101270008031EFE59E0711F481E004C081319F4584
:1012800049F482E00E94821843E062E081E00E941B
:101290006D0401C0C1E08C2FCF9108952FEFFC01A8
:1012A00020830895EF92FF920F931F93CF93DF93C4
:1012B000EC01162FE8818E2F90E0FC013197E3318D
:1012C000F10508F0A3C0EA5AFF4F0C94C826198212
:1012D00089E04DC08981823039F0833061F08130FE
:1012E00029F50E94171C02C00E94F6089A838B837E
:1012F0007C836D838DC07E0122E0E20EF11C00E054
:10130000802F0E94E906F70181937F010F5F0A3069
:10131000B9F77EC08981823049F46A817B818C81F2
:101320009D810E94CE260E94FF0872C0612FCE01CF
:101330000E944E096DC04B816A8189810E94250AF5
:101340009C838D8365C02C813D81322723273227E2
:101350004B816A8189810E943E0A5AC00E94530AC9
:1013600057C00E94E50A24C00E94E70A99838A8335
:101370004FC06B8170E089819A81AE014C5F5F4FF5
:101380009827892798270E94EA0A42C06B8170E05B
:1013900089819A81AE014C5F5F4F982789279827F2
:1013A0000E940F0B35C00E94320B32C00E94120AFD
:1013B00089832EC06B8170E089819A81AE014C5F78
:1013C0005F4F9827892798270E94920A21C06B8136
:1013D00070E089819A81AE014C5F5F4F9827892721
:1013E00098270E94B60A14C00E94F00811C0CE01CE
:1013F0000E94D71FFFEF21EE84E0F1502040804093
:10140000E1F700C000000E94581C02C08FEF8883E3
:10141000612FCE01DF91CF911F910F91FF90EF903F
:101420000C94D71F84E0089550E0440F551F2EE020
:10143000629F400D511D11249A016CE8869F200D7A
:10144000311D1124C901869608950F931F93CF93E0
:10145000DF930E94140A8C010E94E926C82FD0E075
:10146000DC2FCC27C80101960E94E9269E01282B7B
:10147000C901DF91CF911F910F9108950F931F9391
:10148000CF93DF93122F032F0E94140AEC01602FD9
:101490000E94F726612FCE010196DF91CF911F9117
:1014A0000F910C94F726AF92BF92CF92DF92EF92FA
:1014B000FF920F931F93CF93DF93A12CE12CF12C7C
:1014C000B12C00E010E0C0E0D0E06701C00ED11EFA
:1014D000FE01EE0FFF1FEC0DFD1DEE5DFE4F259191
:1014E00034914C2F6B2D8A2D0E943E0A2196C730D5
:1014F000D10571F7025F1F4FB3948AE0B812E3CFB2
:101500008CE8E80EF11CA39484E0A812D9CFDF91F7
:10151000CF911F910F91FF90EF90DF90CF90BF90F0
:10152000AF900895EF92FF920F931F93CF93DF93A5
:10153000EA017A01E60EF71E8C01C8018696CE15E7
:10154000DF0569F0003322E0120720F40E94E9264B
:10155000888301C0188221960F5F1F4FEECFDF9165
:10156000CF911F910F91FF90EF900895EF92FF920E
:101570000F931F93CF93DF93EA017A01E60EF71ED4
:101580008C01C8018696CE15DF0559F0003322E0A4
:10159000120718F468810E94F72621960F5F1F4FEB
:1015A000F0CFDF91CF911F910F91FF90EF900895B1
:1015B000462F843038F47A3028F4673018F4672FD7
:1015C0000C94250A80E090E0089580E108958AEA6D
:1015D00091E00895EF92FF920F931F93CF93DF93C3
:1015E000EA017A01E60EF71E8C01C8018A5A9D4F66
:1015F000CE15DF0569F00A3A21E0120720F40E94B7
:10160000E926888301C0188221960F5F1F4FEDCF16
:10161000DF91CF911F910F91FF90EF900895EF927E
:10162000FF920F931F93CF93DF93EA017A01E60EA7
:10163000F71E8C01C8018A5A9D4FCE15DF0559F05F
:101640000A3A21E0120718F468810E94F7262196D1
:101650000F5F1F4FEFCFDF91CF911F910F91FF9041
:10166000EF900895CF93DF93C6E5D2E060E0CE011E
:101670000E94F7262196C11584E0D807B9F7DF91BB
:10168000CF910895DF92EF92FF920F931F93CF9324
:10169000DF9300D000D0CDB7DEB7F82E8FE08F15E6
:1016A000E8F18FEF93E00E94E926811137C006E54B
:1016B00012E0FF2069F0011584E0180779F1C801F4
:1016C0000E94E926811101C0FA940F5F1F4FF1CFEC
:1016D00019821A821B821C82DD24D39478018FEF39
:1016E000E81AF80AC8010E94E92689831A82882329
:1016F000A9F09FEF980F933058F48A83D9820E5F38
:101700001F4FC7010E94E9268B83882339F0780197
:10171000CE0101960E9416048701E0CF0F900F9032
:101720000F900F90DF91CF911F910F91FF90EF904D
:10173000DF900895AF92BF92CF92DF92EF92FF9227
:101740000F931F93CF93DF937C015B01C42FD22FA4
:10175000FC0182818823F9F04093AD010E940B1CAB
:101760009093AC018093AB0180E28C0F883008F03D
:101770006EC0C77081E001C0880FCA95EAF7DF919B
:10178000CF911F910F91FF90EF90DF90CF90BF907E
:10179000AF900C9492118091AD01481335C08091A7
:1017A000AB019091AC010E94231C6C01B701C501F3
:1017B0000E94C116C816D90638F510E21D0FCD17C4
:1017C000B9F080E28C0F883040F4C77081E001C02E
:1017D000880FCA95EAF70E949911183058F581E0F0
:1017E0009D2F977001C0880F9A95EAF70E94921179
:1017F000802F0E947F11183050F5D77081E001C012
:10180000880FDA95EAF70AC080E28C0F8830F8F486
:10181000C77081E001C0880FCA95EAF7DF91CF91C8
:101820001F910F91FF90EF90DF90CF90BF90AF90FE
:101830000C949911802FDF91CF911F910F91FF9000
:10184000EF90DF90CF90BF90AF900C947F11DF911D
:10185000CF911F910F91FF90EF90DF90CF90BF90AD
:10186000AF9008950F939C01CB01233F4CE53407C3
:1018700031F188F4283DFCE53F07D9F0293D4CE5DE
:10188000340779F1273D3C45A9F506E221EE41EE0A
:1018900067ED7CE52BC0253FFCE53F07E1F0A8F0B4
:1018A000263F3C4539F507E225EE46EE66EF7CE53E
:1018B0001DC007E225EE45EE68ED7CE517C006E2A7
:1018C00021EE40EE63EF7CE511C007E225EE44EE29
:1018D00064EF7CE50BC006E221EE42EE65EF7CE5AD
:1018E00005C008E221E045EE69ED7CE50E949A0B17
:1018F00080E008C0FC018281882319F01092AD01BC
:1019000001C081E00F910895CF93DF93EC01FB01BB
:101910008281882309F41FC1C230FCE5DF0708F487
:101920001BC1C6319CE5D90738F09E012A5F3C45B2
:101930002930310508F010C10E94A11A909371025C
:1019400080937002C031ECE5DE0709F4C3C008F0F3
:1019500041C0C8308CE5D80709F49AC0F0F4C4300F
:10196000ECE5DE0709F487C068F4C2308CE5D807DF
:1019700009F477C0C330DC4509F0E3C08091700200
:10198000826076C0C630ECE5DE0709F46EC008F070
:101990007BC08091700288606BC0CC308CE5D8072A
:1019A00009F485C068F4CA30ECE5DE0709F474C0B8
:1019B00008F079C00E94221480917002806858C09B
:1019C000CE308CE5D80709F476C008F07FC080914E
:1019D00070028BC0CB3FECE5DE0709F44FC018F571
:1019E000C3318CE5D80709F47DC078F4C131ECE54A
:1019F000DE0709F473C0C231DC4509F0A2C00E94C1
:101A00002214809170028F7733C0C5318CE5D807DE
:101A100009F472C008F486C0CA3FDC4509F091C0E1
:101A2000809171023EC0CF3FFCE5DF0709F45FC043
:101A300058F4CD3F9CE5D90709F444C008F43FC0F1
:101A40008091710282602DC0C130FDE5DF0709F48D
:101A500075C008F45DC0C230DD4509F072C080E099
:101A60006EC080917002816003C0809170028061BD
:101A70008093700266C08091700211C080917102E3
:101A80008260809371025DC0809170028062F0CFAD
:101A9000809170028064ECCF8091700288608460D5
:101AA000E7CF8160EECF809170028E7FE1CF809191
:101AB00070028D7FDDCF80917002877FD9CF8091BA
:101AC000710218C0809171028D7FDBCF809170020E
:101AD0008F7ECECF809170028F7DCACF80917002B1
:101AE0008F7BC6CF80917002877F8B7FC1CF809123
:101AF00071028D7F8E7FC5CF8091700282FB22277D
:101B000020F991E0922790FB82F990FB83F9B0CF06
:101B100080917102982F909591708E7F892B90FB08
:101B200081F9AFCF0E9422148091700287FB222797
:101B300020F991E0922790FB87F99ACF81E00E94EB
:101B4000301B80917002909171020E94B21A0E9423
:101B5000221480E001C081E0DF91CF910895CF93FE
:101B6000DF9386319C4541F5EB010E94D719982FF0
:101B70008A812091090130910A01882379F09A7AAB
:101B800081E009F480E08093AE01911102C069E226
:101B900001C065E3C9010E94771B0AC08091AE01B4
:101BA000811102C069E201C065E3C9010E94791B8D
:101BB0000E94251A80E001C081E0DF91CF91089555
:101BC0008EE14A9B02C08150E1F74A9BFECF089507
:101BD0005A9880E28A95F1F75A9A0895FC012AE012
:101BE0002A95F1F728E090E080E031E040E14A9565
:101BF000F1F7880F4A9B02C08160932700C0000064
:101C000040E14A95F1F7215089F720E12A95F1F753
:101C100029B100C0000030E13A95F1F722FB2227FC
:101C200020F992272081920F90830895EF92FF92DE
:101C30000F931F93CF93DF931F92CDB7DEB7198217
:101C40008C017C01E60EF11C0E151F0551F00E945F
:101C5000E00DCE0101960E94EE0DF80181938F01F7
:101C6000F3CF81E09981911180E00F90DF91CF91C6
:101C70001F910F91FF90EF9008959093B001809382
:101C8000AF01529A5A9A08959093B0018093AF0190
:101C900052985A9AEA9AE9E6F0E080818F7C808334
:101CA0000895615091E001C0990F6A95EAF720E02C
:101CB00031E0992361F0492F482319F05A9A2327DC
:101CC00001C05A9840E24A95F1F79695F2CF222347
:101CD00011F05A9A01C05A9880E28A95F1F75A9801
:101CE0000895FF920F931F93CF93DF93EC018C0124
:101CF000060F111DC017D10741F0F9900E94E80DA1
:101D000068E08F2D0E94510EF5CFDF91CF911F918A
:101D10000F91FF9008951F920F920FB60F9211240A
:101D20002F933F934F935F936F937F938F939F93E3
:101D3000AF93BF93CF93DF93EF93FF935A98529A49
:101D4000C091AF01D091B0016D81662321F08E81E9
:101D50009F810E94710E0E94E80D80E18A95F1F743
:101D60005A9852985A9A80E18A95F1F76A816623C7
:101D700051F08B819C810E94160EE881F9818111BE
:101D800004C082E003C0E881F98188E080830E947A
:101D9000E00DFF91EF91DF91CF91BF91AF919F91B6
:101DA0008F917F916F915F914F913F912F910F9004
:101DB0000FBE0F901F901895CF93DF93C091AF0186
:101DC000D091B001F894529A5A9885E08A95F1F72B
:101DD000000052985A9A80E28A95F1F74A9B0AC00D
:101DE000529A5A9AE881F98181E08083789481E05F
:101DF00090E02CC06D81662381F08E819F810E94CE
:101E0000160E81110AC0529A5A9AE881F98182E02D
:101E10008083789482E090E019C00E94E00D80E217
:101E20008A95F1F75A98529A80E18A95F1F76A817A
:101E3000662321F08B819C810E94710E0E94E80D27
:101E4000E881F9811082789480E090E0DF91CF9171
:101E500008959093B6018093B5010895E091B5017E
:101E6000F091B601309721F00190F081E02D0994B6
:101E700080E00895E091B501F091B601309721F02E
:101E80000280F381E02D09940895E091B501F0916D
:101E9000B601309739F022E0DC012C930480F58103
:101EA000E02D099408952091B3013091B4012817D1
:101EB000390771F09093B4018093B301E091B501BB
:101EC000F091B601309721F00680F781E02D09945A
:101ED00008952091B1013091B2012817390771F0AE
:101EE0009093B2018093B101E091B501F091B601F8
:101EF000309721F00084F185E02D0994089585B78D
:101F0000806885BF85B7806885BF089508950C9463
:101F1000860F0C94870F0C94860F0C94860F0E94EA
:101F20007F0F0E948B0F0C94890F0C9455080E9410
:101F3000021C0E94FE060E9403090E947F1C0C9452
:101F40008D0FAF92BF92CF92DF92EF92FF920F93DD
:101F50001F93CF93DF93CDB7DEB72A970FB6F894D0
:101F6000DEBF0FBECDBF0E948F070E94950F81116B
:101F700011C08FEF89838A831B820E940B1C8160B2
:101F8000782F9D838C8349815A816B818D810E943A
:101F9000391040C088EBA82E81E0B82E00E010E098
:101FA000C02E802F0E94E906E82EF501D1905F0136
:101FB000D82631F40F5F1F4F0A30110589F7D9CFAA
:101FC00080913D0281FD0E94EF0680E0FF24F394A2
:101FD0009D2D9F21D1F08E83CF82EF2081E009F4E7
:101FE00080E088870E940B1C8160782F9A87898700
:101FF0004E815F8168858A850E943910F801E85416
:10200000FE4F8081F826F08205C08F5FFF0C87307D
:10201000F9F6D0CF0E942E1E0E942E0F9091B7018C
:102020008917B1F00E942E0F8093B7012A960FB640
:10203000F894DEBF0FBECDBFDF91CF911F910F91FE
:10204000FF90EF90DF90CF90BF90AF900C94E5049D
:102050002A960FB6F894DEBF0FBECDBFDF91CF91A9
:102060001F910F91FF90EF90DF90CF90BF90AF90B6
:102070000895CF93DF93CDB7DEB72B970FB6F894C3
:10208000DEBF0FBECDBF4F83588769877A878B87A6
:10209000DE01119686E0FD0111928A95E9F785E04F
:1020A000FE01379601900D928A95E1F749815A8198
:1020B0006B817C818D819E810E94C4162B960FB608
:1020C000F894DEBF0FBECDBFDF91CF910895FC0124
:1020D000808191810E9498190895CF93882309F4F3
:1020E000A4C0C82F8238C1F40E942E0F81FD9DC06C
:1020F00069E38091090190910A010E94771B0E9477
:10210000251A2FEF81EE94E0215080409040E1F7B6
:1021100000C0000069E319C0833801F50E942E0F4A
:1021200080FD83C063E58091090190910A010E94BE
:10213000771B0E94251A2FEF81EE94E021508040FA
:102140009040E1F700C0000063E5809109019091A3
:102150000A010E94791BCF910C94251A8438C1F48E
:102160000E942E0F82FD61C067E480910901909169
:102170000A010E94771B0E94251A2FEF81EE94E03E
:10218000215080409040E1F700C0000067E4DDCFBF
:102190008CEF8C0F813AD0F46C2F809109019091D3
:1021A0000A010E94411B882349F06C2F809109018C
:1021B00090910A010E94791B0E94251A6C2F809130
:1021C000090190910A010E94771BC5CF80E28C0F14
:1021D000883048F4C77081E001C0880FCA95EAF7DB
:1021E0000E94DA19B8CFEBE5EC0FE33040F4F0E0F1
:1021F000E257FE4F808190E0CF910C94530FE8E5B9
:10220000EC0FE73150F4F0E0EE0FFF1FE05AFE4F05
:1022100080819181CF910C94690FC03F30F08C2F59
:102220000E94231DCF910C94101ECF9108958823F6
:1022300009F464C0823879F40E942E0F81FF5EC0D9
:1022400069E38091090190910A010E94771B0E9425
:10225000251A69E310C08338B1F40E942E0F80FF65
:102260004DC063E58091090190910A010E94771B9E
:102270000E94251A63E58091090190910A010E944C
:10228000791B0C94251A843879F40E942E0F82FF52
:1022900035C067E48091090190910A010E94771B83
:1022A0000E94251A67E4E7CF9CEF980F913A10F44B
:1022B000682FE1CF90E2980F983050F4877091E04A
:1022C00001C0990F8A95EAF7892F0E94E019D9CFAA
:1022D0009BE5980F933020F480E090E00C94530F2E
:1022E00098E5980F973120F480E090E00C94690F06
:1022F000803F20F00E948B1D0C94101E0895CF93F8
:10230000C82F0E946D10C93349F42FEF87EE93E078
:10231000215080409040E1F700C000008C2FCF9109
:102320000C941711882321F00E94DA190C94251AB5
:102330000895882321F00E94E0190C94251A08952D
:10234000CF92DF92EF92FF920F931F93CF93DF9381
:102350007C01062FC72FFC01158112951F70D281B9
:10236000D1110E94F7190E94D019882399F0DD231A
:1023700089F08C2F807F803421F080E2800F8830BC
:1023800048F082E00E946F1A0E94D01991E0D82E86
:10239000D92601C0D12CCC2EC2948FE0C8228C2D1E
:1023A00090E0FC01E759FF4F0C94C8268C2F807FEA
:1023B000CF70882311F0C295C07FDD2399F0CC2324
:1023C00009F48DC180E2800F883010F0011104C043
:1023D0008C2F0E94DA1903C08C2F0E94EA190E94E8
:1023E000251A7DC1802F0E941711CC2309F49CC1AE
:1023F00080E2800F883010F0011104C08C2F0E9401
:10240000E01903C08C2F0E94F0190E94251A8CC17C
:102410008C2F807FCF70803211F0C295C07F002357
:1024200019F00130C9F022C0DD2371F0112341F011
:10243000113031F40E940A1A8C2B0E94121A74C1B6
:102440000E940A1A8C2B1DC0112319F0113009F4B7
:102450006BC10E941B1A25C0DD2321F0163008F045
:1024600063C10EC0153008F05FC11BC0DD2361F0F1
:10247000112331F0F701858180FF31C18F70858391
:102480008C2F0E94921150C1112359F0093309F089
:1024900037C1FFEF27EE83E0F15020408040E1F7A5
:1024A0002DC18C2F0E9499113FC18C2F8695869546
:1024B000837019F0813061F037C1DD2321F0802F66
:1024C0009C2F937002C080E090E00E94530F34C1B3
:1024D000DD2321F0802F9C2F937002C080E090E0DC
:1024E0000E94690F29C1802FDD2319F00E94231D4E
:1024F00002C00E948B1D0E94101E1EC18C2F837073
:1025000009F045C0D11114C1402F4295469547703E
:10251000440F440F602F6F70862F90E0A0E0B0E072
:10252000042E04C0880F991FAA1FBB1F0A94D2F75C
:1025300004FF10C00FE010E020E030E004C0000F06
:10254000111F221F331F4A95D2F700951095209531
:10255000309503C000E010E09801C695C695C370A1
:10256000BC01CD01602B712B822B932BC23049F023
:1025700058F4C13019F00E941518DAC00E940318EF
:10258000D7C00E942718D4C00E940118D1C0DD23F3
:1025900019F08C2F817001C08695882309F4C8C07A
:1025A000402F429546954770440F440F602F6F703F
:1025B000862F90E0A0E0B0E0042E04C0880F991FA1
:1025C000AA1FBB1F0A94D2F704FF10C00FE010E04F
:1025D00020E030E004C0000F111F221F331F4A9576
:1025E000D2F7009510952095309503C000E010E0DB
:1025F0009801C695C695C370BC01CD01602B712BA7
:10260000822B932BC23049F058F4C13019F00E944C
:10261000DA188EC00E94C8188BC00E94EC1888C0BF
:102620000E943B1885C0CF70DD2339F08C2F0E94AB
:102630006118802F0E9492117BC0802F0E949911F7
:102640008C2F0E94821874C0023F01F128F4003FD1
:1026500041F0013FA1F03FC0033FF9F0043F39F1E1
:102660003AC0DD2341F0153008F05EC08C2F8F7129
:102670000E94A71859C0163008F056C0F7CFDD23C6
:1026800039F08C2F8F710E9461184EC0DD23C9F381
:102690008C2F8F710E94821847C0DD2329F08C2F68
:1026A0008F710E944C1840C00E9447183DC0DD2326
:1026B00049F0CF718C2F0E94611863E08C2F0E942B
:1026C0005A1A32C081E00E946F1A123068F182E01B
:1026D0000E946F1A29C0DD2331F0112391F2802F5F
:1026E0000E946D1021C0112399F2093349F49FEF24
:1026F000E7EEF3E09150E040F040E1F700C0000069
:10270000802F0E94171110C04C2F4F70602FC701EF
:102710000E94EE040E9472170FC04C2F4F70602F62
:10272000C7010E94F10408C088EF8C0D843020F4AA
:102730000E942E0F0E94E504DD20C9F00E94CC19F2
:1027400080FD15C0F70112820E94C6190E9461180F
:10275000C7010E94D8130E94C619DF91CF911F9123
:102760000F91FF90EF90DF90CF900C948218DF9143
:10277000CF911F910F91FF90EF90DF90CF90089530
:102780000F931F93CF93DF93EC01688179818A8146
:102790000E94A3198C010E94FE180E94EF17B80135
:1027A000CE010E94A011DF91CF911F910F9108954A
:1027B000CF93DF93EC01988189812B813C81232B7E
:1027C00031F08F3F31F481E09F3F19F403C081E085
:1027D00001C080E080FD19C0CE010E949B048111E0
:1027E0000CC00E94D019882381F08A81882369F067
:1027F00082E0DF91CF910C946F1ACE010E94C0133A
:10280000CE01DF91CF910C945603DF91CF910895C3
:102810000E94F7190E94071A0E94251A0E94411F60
:102820000E94101E80E090E00E94530F80E090E034
:102830000C94690F8091090190910A010E947B1B01
:102840000C9408140E94E7190C941A14E92FE295CD
:10285000EF704E2F50E0FA013297EE30F105B0F4F0
:10286000E758FF4F0C94C826803F91F018F4883E3B
:1028700068F40EC0843F51F40BC0883E48F0813F9D
:1028800029F406C093FB882780F9089580E0089515
:1028900081E008950E9498190E9426140895CF930C
:1028A000DF9300D000D01F92CDB7DEB70F900F900E
:1028B0000F900F900F90DF91CF910895CF93DF93FA
:1028C00000D000D000D0CDB7DEB726960FB6F89472
:1028D000DEBF0FBECDBFDF91CF9108951F93CF9381
:1028E000DF93C091C30116E08091C401C81799F02D
:1028F000D0E01C9FF0011D9FF00D1124EB53FE4F03
:102900004081518162817381848195810E945E142E
:102910002196C770E9CFDF91CF911F910895409123
:10292000F5015091F6016091F7017091F8018091E5
:10293000F9019091FA010C945E140F931F93CF93B9
:10294000DF938091FA0182958F7009F05DC08091CC
:10295000F701882309F458C08091C3011091C40184
:102960006091F5017091F601C091F801D091F901E3
:1029700091E06F3F09F090E0292F06E0811709F4FC
:1029800043C0209721F07F3F21F030E003C031E0C9
:1029900001C0322F90E030FD34C0089FF001099F44
:1029A000F00D1124DF01AB53BE4F11963C911197EE
:1029B000371327C03C91361324C012963C911297CE
:1029C00031111FC013964D915C9114974C1B5D0BF8
:1029D000443B5105B0F48091FA018F70806180937F
:1029E000FA01E653FE4F80818F708061808385EF0E
:1029F00091E00E94D813DF91CF911F910F910C9419
:102A00006E1401968770BACFDF91CF911F910F910D
:102A100008959F92AF92BF92CF92DF92EF92FF9272
:102A20000F931F93CF93DF93CDB7DEB761970FB6A8
:102A3000F894DEBF0FBECDBF8C0185E0F801DE014A
:102A40001D9601900D928A95E1F7F8014081518120
:102A5000E2809091F5016091F6012091F8013091AA
:102A6000F9012115310531F06F3F31F481E09F3FCD
:102A700019F403C081E001C080E0F82FF1709F2EAF
:102A800080FD2CC1F801A380B48085EFC82E81E0C1
:102A9000D82EF090F701F501E21BF30BFF2009F4AB
:102AA000EBC08091FA01E43BF10508F0A7C0282FA4
:102AB000207F09F052C0561313C0491311C0FE2CD9
:102AC000E1100EC08F7080618093FA010E948F1414
:102AD000C6010E94D8138091FA01F80185833EC196
:102AE000AB2831F05F3F31F481E04F3F19F403C070
:102AF00081E001C080E080FD03C081E08E2502C03E
:102B000080E090E0F82FF170FF2E80FF1CC08091D4
:102B1000C3012091C40136E0821709F4FDC090E0A2
:102B2000389FF001399FF00D1124EB53FE4F618166
:102B3000561306C06081461303C06281E61203C0CB
:102B400001968770E9CFFE2CEE2009F407C1809131
:102B5000FA0181608093FA0166C0561312C04913CE
:102B600010C0E1100EC0F8018583C8010E94D8137F
:102B700086E0F801A5EFB1E001900D928A95E1F7AA
:102B8000C8C04D875E878D859E850E944A14882324
:102B900079F1EE2069F12091FA01822F82958F70F0
:102BA00090E0029774F08091F5019091F60198877A
:102BB0008F831986BB86AA862C87CE0107960E9432
:102BC000D81386E0F801A5EFB1E001900D928A9547
:102BD000E1F70E949D140E948F140DC0561729F131
:102BE0004D875E878D859E850E944A1481112CC079
:102BF000C8010E94D813FF24F394B0C0282F207F6F
:102C000069F77A2DB98AA88A6E2D89890E944F1496
:102C100085EF91E00E94D81386E0F60111928A9523
:102C2000E9F70E948F14F12C99C04913D9CFE11014
:102C3000D7CFF8018583C8010E94D81386E0F6013A
:102C400011928A95E9F78AC0EE2091F22091FA015B
:102C5000822F82958F7090E002970CF4B2CF809112
:102C6000F5019091F6019A8389831B82BD82AC8223
:102C70002E83CE010196A3CFE43BF10510F5FE2C87
:102C8000EE2009F4B5CF56130BC0491309C086E0F6
:102C9000F801A5EFB1E001900D928A95E1F75EC0D1
:102CA0004D875E878D859E850E944A14811189CF4C
:102CB0008091FA0181608093FA01C8010E94D813C3
:102CC0004DC07A2DB98AA88A6E2D89890E944F1429
:102CD00086E0F60111928A95E9F71BC0EE2009F40F
:102CE00087CF4D875E878D859E850E944A14F82E7A
:102CF000882309F47DCF86E0F801A5EFB1E00190CB
:102D00000D928A95E1F785EF91E00E9467100E948D
:102D10009D140E948F1422C04D875E878D859E85ED
:102D20000E949819292F22952F70223028F49F7025
:102D300039F0811105C00BC0243028F49F7049F48C
:102D4000805E883020F0C8010E94D8139F2CF92C97
:102D500005C0F8019581907F99F7F9CF8F2D619685
:102D60000FB6F894DEBF0FBECDBFDF91CF911F919C
:102D70000F91FF90EF90DF90CF90BF90AF909F901A
:102D8000089584EB90E008951F93CF93DF93CDB720
:102D9000DEB72C970FB6F894DEBF0FBECDBF4F83C2
:102DA000588769877A878B879C87CE0107960E9410
:102DB00009158823D1F09F8188852A853B85232B9F
:102DC00031F08F3F31F481E09F3F19F403C081E07F
:102DD00001C080E080FD47C04F81588569857A85B4
:102DE0008B859C850E945E143EC086E0FE0137966E
:102DF000DE01119601900D928A95E1F7FF81E88539
:102E00006A857B856115710531F0EF3F31F481E012
:102E1000FF3F19F403C081E001C080E080FD23C0C2
:102E20002091C40130E0C901019687709927409133
:102E3000C30150E084179507F1F1F983EA837D839C
:102E40006C8396E0929FD001939FB00D1124AB53F9
:102E5000BE4FFE01319601900D929A95E1F7809355
:102E6000C4010E946E1416E08091C3019091C401C8
:102E7000891771F1189FC00111248B539E4F0E9436
:102E80000915882329F1E091C3011E9FF001112447
:102E9000EB53FE4F40815181628173818481958122
:102EA0000E945E148091C30190E00196877099277B
:102EB0008093C301D9CF0E9422141092C4011092B2
:102EC000C301E5EFF1E086E0DF011D928A95E9F7A5
:102ED0002C960FB6F894DEBF0FBECDBFDF91CF9119
:102EE0001F910895EF92FF920F931F93CF93DF935B
:102EF0008C01892B09F46CC0F12CEE24E394E801D9
:102F00002196F8018491843740F4843008F051C050
:102F1000813081F0823019F15BC0853709F444C0FB
:102F2000A8F19CE7980F903708F052C08F770E9465
:102F3000171141C00E5F1F4FFE01849190E2980F60
:102F4000983050F48770FE2D01C0FF0F8A95EAF784
:102F50008F2F0E94FA1914C00E946D102DC00E5FB1
:102F60001F4FFE01849190E2980F983060F48770B3
:102F7000FE2D01C0FF0F8A95EAF78F2F0E94001ADD
:102F80000E94251A19C00E94171116C00E5F1F4F0C
:102F9000FE01C491CC2381F08FE99FE00197F1F706
:102FA00000C00000C150F6CF0E5F1F4FFE01F4902D
:102FB00003C00E946D108E018F2D882309F49FCFCE
:102FC000EFE9FFE03197F1F700C000008150F5CF45
:102FD000DF91CF911F910F91FF90EF900895089589
:102FE00008950C94F0170C94F1170E94F317609356
:102FF0002C0270932D0280932E0290932F020C943A
:1030000008140C94F5170F931F9300912C02109144
:103010002D0220912E0230912F02602B712B822BDA
:10302000932B1F910F910C94F5170F931F93009101
:103030002C0210912D0220912E0230912F0260233C
:103040007123822393231F910F910C94F5170F93F3
:103050001F9300912C0210912D0220912E0230918D
:103060002F0260277127822793271F910F910C94BD
:10307000F5170C94F0170E9439186093280270938A
:10308000290280932A0290932B020C94081460E08A
:1030900070E0CB010C943B180F931F9341E050E07C
:1030A00060E070E08A019B0104C0000F111F221F25
:1030B000331F8A95D2F7C901B8011F910F910C9463
:1030C0003B180F931F9341E050E060E070E004C0B4
:1030D000440F551F661F771F8A95D2F780912802EB
:1030E00090912902A0912A02B0912B028A019B01A2
:1030F000082B192B2A2B3B2BC901B8011F910F91CB
:103100000C943B180F931F9341E050E060E070E097
:1031100004C0440F551F661F771F8A95D2F740954C
:103120005095609570958091280290912902A09108
:103130002A02B0912B028A019B01082319232A231A
:103140003B23C901B8011F910F910C943B180F93B9
:103150001F9341E050E060E070E004C0440F551F51
:10316000661F771F8A95D2F78091280290912902D5
:10317000A0912A02B0912B028A019B0108271927EE
:103180002A273B27C901B8011F910F910C943B18C6
:103190000F931F93009128021091290220912A0277
:1031A00030912B02602B712B822B932B1F910F914F
:1031B0000C943B180F931F93009128021091290241
:1031C00020912A0230912B026023712382239323C2
:1031D0001F910F910C943B180F931F93009128029D
:1031E0001091290220912A0230912B026027712729
:1031F000822793271F910F910C943B18089527E085
:10320000929F800D1124E82FE695E695E69587704C
:1032100051E001C0550F8A95EAF785E0E89FF0017B
:103220001124E550FE4F20E030E070E04081CB01FA
:10323000022E02C0969587950A94E2F781708195D7
:1032400084278523842781932F5F3F4F25303105C5
:1032500069F7089527E0929F800D1124682F6695E5
:1032600066956695982F977085E0689FB001112448
:1032700040E050E080E0FB01E40FF51FE550FE4F19
:10328000208130E0092E02C0369527950A94E2F796
:1032900021703327042E01C0220F0A94EAF7822BF3
:1032A0004F5F5F4F4530510531F70895BF92CF9280
:1032B000DF92EF92FF920F931F93CF93DF938C01D6
:1032C000C0902802D0902902E0902A02F0902B02B0
:1032D00080912C0290912D02A0912E02B0912F028C
:1032E000C82AD92AEA2AFB2ACFE1D0E0D701C601B1
:1032F0000C2E04C0B695A795979587950A94D2F79A
:1033000080FD04C0219790F7B12C07C0BC2EB801F6
:103310008C2F0E94FA040197A9F38B2DDF91CF9196
:103320001F910F91FF90EF90DF90CF90BF90089585
:10333000CF93DF93EC010E945619BE010E94FA045C
:10334000DF91CF9108951F93CF93DF93EB0190917D
:10335000C201992321F0CB010E94981913C0882340
:1033600049F0CB010E945619182F682FCE010E94F8
:10337000FF1804C0CB010E942A19182FBE01812F0B
:103380000E94FA04DF91CF911F910895809130023D
:10339000859585958595089580913002877008956B
:1033A00090913002977081E009F480E00895809157
:1033B0003C02089590913C02892B80933C02089531
:1033C000809590913C02892380933C02089510924D
:1033D0003C02089590913B02892B80933B02089513
:1033E000809590913B02892380933B02089510922F
:1033F0003B02089590913A02892B80933A020895F6
:10340000809590913A02892380933A020895109210
:103410003A02089580913102089508950C940D1A8E
:103420000C940E1A90913102981721F0809331027A
:103430000C94101A089580913102882329F010927B
:10344000310280E00C94101A0895E0910901F09186
:103450000A0180913C028083E0910901F0910A0108
:10346000908180913B02892B8083E0910901F0914A
:103470000A01908180913A02892B808380913102E8
:10348000882381F0E0910901F0910A019081892B54
:1034900080838091090190910A010E94351B81115E
:1034A0000E941B1A8091090190910A010C943A0F15
:1034B0000C940D1A98E0899F90011124262B2093DB
:1034C00030020E946118809130028595859585951E
:1034D0000C94581A1092300280E00C94581A2091E3
:1034E00030028095822380933002982F977079F470
:1034F00030E0482F082E000C550B2417350739F003
:103500008595859585950E9482180C946A1A089570
:103510006FEF7FEF80E090E00C94152780E090E063
:103520000E94F12621E08C3E9E4F09F020E0822F80
:10353000089582E090E00C94E92683E090E00C94FA
:10354000E926CF9384E090E00E94E926C82F81E22B
:1035500090E00E94E9262C2F30E0A901582BCA01E7
:10356000CF910895CF93C92F682F84E090E00E94F7
:10357000F7266C2F81E290E0CF910C94F726AB01F7
:10358000BC018FE090E00C940927AB01BC0183E102
:1035900090E00C94092760E070E0CB010C94C51A10
:1035A00060E070E0CB010E94BF1A0C94CB1A6CEE65
:1035B0007EEF80E090E00E94152760E082E090E0DE
:1035C0000E94F72660E083E090E00E94F7261092C8
:1035D0002C0210922D0210922E0210922F0260E007
:1035E00084E090E00E94F72660E081E290E00E9493
:1035F000F72660E085E090E00E94F72660E086E034
:1036000090E00E94F7266FEF87E090E00E94F72697
:1036100040E050E0BA0188E090E00E94092760E0B5
:103620008DE090E00E94F72640E050E0BA0188E18A
:1036300090E00E94092760E087E190E00E94F72671
:1036400040E050E0BA018CE190E00E94092760E080
:1036500080E290E00E94F7260C94D01A0C94D71ABE
:10366000682F8EE090E00C94F726FC01329697E0EC
:1036700080E0915029F021912223D9F38F5FF9CF77
:103680000895662349F0FC0132960896219162174D
:1036900029F0E817F907D1F780E0089581E008954F
:1036A0009C01FC0132969FEF80E04191461789F022
:1036B0009F3F19F4411101C0982F8F5F8630A9F701
:1036C0009F3F39F0F901E90FF11D97FDFA956283EB
:1036D000089508959C012A5F3F4FFC0142814613E3
:1036E00001C01282019682179307B9F708950C94CE
:1036F000501B0C946A1B029626E0FC0111922A953D
:10370000E9F7089508950C94821B0C94821BCF93C3
:103710000E94851B0E948F070E94831BC0E08C2F94
:103720000E94E906811104C0CF5FCA30C1F701C011
:1037300081E0CF9108950C94821B0C949B1B0E94F6
:103740009D1B80917602843049F110923E0220E464
:1037500088E190E00FB6F894A895809360000FBEC2
:103760002093600080E00E94E5040E949D1B83B7C7
:10377000817F846083BF83B7816083BF789488959D
:1037800083B78E7F83BF0FB6F894A89580916000B1
:10379000886180936000109260000FBE08950C94C1
:1037A000821B0E9422140E942E0F0E94E5040C949A
:1037B000CF1B1F920F920FB60F9211248F939F93DE
:1037C000AF93BF9380913E02811113C080916C0230
:1037D00090916D02A0916E02B0916F024196A11D71
:1037E000B11D80936C0290936D02A0936E02B09312
:1037F0006F02BF91AF919F918F910F900FBE0F906D
:103800001F90189582E084BD93E095BD9AEF97BD17
:1038100080936E0008952FB7F89480916C02909178
:103820006D02A0916E02B0916F022FBF08952FB765
:10383000F89460916C0270916D0280916E0290918B
:103840006F022FBF08959C014FB7F89480916C02CE
:1038500090916D02A0916E02B0916F024FBF821BDA
:10386000930B089578941F920F920FB60F92112424
:103870008F939F93AF93BF9380916C0290916D0251
:10388000A0916E02B0916F020196A11DB11D8093AF
:103890006C0290936D02A0936E02B0936F02BF9181
:1038A000AF919F918F910F900FBE0F901F90189521
:1038B00087E797E790930108809300089AE088E1F2
:1038C0000FB6F894A895809360000FBE90936000A7
:1038D000FFCF0C94F0080E948F078FE39CE90197BB
:1038E000F1F700C000000E948F0780E00E94E90607
:1038F00080FF04C00E94691C0C94581C08950E940B
:103900008E1A811102C00E942E1B0E94991A809368
:103910003D020E94A11A90937102809370020E944E
:103920009D1A682F70E080E090E00E94011860917D
:1039300028027091290280912A0290912B020C9406
:1039400039188091450280FF0BC06091100185E01D
:10395000689FB001112475956795759567952BC083
:1039600081FF09C06091100185E0689FB0011124BA
:103970007595679520C082FF07C06091100185E0B2
:10398000689FB001112417C0909144029923D1F08F
:1039900060910F01961788F72091100185E0289F0C
:1039A00090011124929FA001939F500D112470E06B
:1039B000CA010E94B4266038710540F46115710592
:1039C00019F406C065E070E0862F08958FE708952A
:1039D00081E008958091450280FF08C060910C014C
:1039E00070E0759567957595679521C081FF06C054
:1039F00060910C0170E07595679519C082FF04C055
:103A000060910C0170E010C090914302992399F0ED
:103A100060910B019617A0F780910C01899FC0015E
:103A2000112470E00E94B4266038710540F46115DD
:103A3000710519F406C061E070E0862F08958FE7E4
:103A4000089581E00895803F21F40E94A11C819592
:103A500004C0813F29F40E94A11C8093490208956B
:103A6000823F21F40E94A11C819504C0833F29F468
:103A70000E94A11C809348020895893F19F40E9476
:103A8000EA1C05C08A3F31F40E94EA1C81958093AC
:103A90004A0208958B3F21F40E94EA1C819504C0DC
:103AA0008C3F29F40E94EA1C80934B020895843FC6
:103AB00021F480914702816017C0853F21F48091F5
:103AC0004702826011C0863F21F4809147028460E2
:103AD0000BC0873F21F480914702886005C0883F72
:103AE00031F48091470280618093470208958D3FB1
:103AF00021F48091450281600BC08E3F21F48091BA
:103B00004502826005C08F3F29F4809145028460A0
:103B1000809345020895803F39F48091490287FFE0
:103B20006AC01092490267C0813F29F4809149021E
:103B30001816BCF360C090914802823F29F497FFA9
:103B40005AC01092480257C0833F19F41916CCF39B
:103B500052C090914A02893F31F419160CF04BC0C3
:103B600010924A0248C08A3F19F497FF44C0F8CF28
:103B70008B3F39F480914B0287FF3DC010924B027E
:103B80003AC08C3F29F480914B021816BCF333C025
:103B9000843F21F4809147028E7F17C0853F21F436
:103BA000809147028D7F11C0863F21F480914702AA
:103BB0008B7F0BC0873F21F480914702877F05C030
:103BC000883F31F4809147028F7E8093470213C073
:103BD0008D3F21F4809145028E7F0BC08E3F21F4F2
:103BE000809145028D7F05C08F3F29F48091450269
:103BF0008B7F8093450280914802811106C080919D
:103C00004902811102C01092440280914A0281113E
:103C100006C080914B02811102C0109243020895A8
:103C20000E940B1C20914802211104C020914902DE
:103C3000222321F0909342028093410220914A0274
:103C4000211104C020914B02222321F090934002C5
:103C500080933F0286E492E00C94450FEF92FF922E
:103C60000F931F93CF93DF9300D000D000D0CDB738
:103C7000DEB786E0E6E4F2E0DE01119601900D92F7
:103C80008A95E1F7E0904802F090490200914A02DB
:103C900010914B02109248021092490210924A026F
:103CA00010924B02E11003C0FF2009F45DC0809127
:103CB0004102909142020E94231CAC019091440267
:103CC000992339F02091110130E02417350758F07D
:103CD0004BC0209112018AE0289F900111242417E3
:103CE000350718F041C09F3F19F09F5F9093440241
:103CF000EE2061F00E94A11C1E1414F09FEF01C081
:103D000091E0989F902D112490934802FF2061F03C
:103D10000E94A11C1F1414F09FEF01C091E0989F16
:103D2000902D112490934902309148023323E1F001
:103D3000209149022223C1F045EB3403C001112434
:103D4000992319F09093480203C081E080934802C0
:103D500035EB2303C0011124992319F090934902F4
:103D600003C081E080934902011103C0112309F4CB
:103D70005DC080913F02909140020E94231CAC01E3
:103D800090914302992339F020910D0130E02417DE
:103D9000350758F04BC020910E018AE0289F900112
:103DA00011242417350718F041C09F3F19F09F5F79
:103DB00090934302002361F00E94EA1C101614F055
:103DC0009FEF01C091E0989F902D112490934A029B
:103DD000112361F00E94EA1C111614F09FEF01C03C
:103DE00091E0989F902D112490934B0230914A02BC
:103DF0003323E1F020914B022223C1F045EB340341
:103E0000C0011124992319F090934A0203C081E064
:103E100080934A0235EB2303C0011124992319F042
:103E200090934B0203C081E080934B028091480243
:103E300081110BC080914902811107C080914A0213
:103E4000811103C080914B0281110E94101EEB82F0
:103E5000FC820D831E8386E0FE013196A6E4B2E06B
:103E600001900D928A95E1F726960FB6F894DEBF81
:103E70000FBECDBFDF91CF911F910F91FF90EF90BB
:103E80000895E6E4F2E086E0DF011D928A95E9F705
:103E900010924402109243021092450208958091BC
:103EA00054020895CF93DF9300D01F92CDB7DEB7B1
:103EB00090917602943011F589837B836A83909385
:103EC000E9008FEF9091E800815095FD06C095EDD7
:103ED0009A95F1F700008111F5CF8091E80085FFF8
:103EE0000DC040E050E063E070E0CE0101960E941A
:103EF000CB218091E8008E778093E8000F900F909F
:103F00000F90DF91CF910895BC0184E00C94521F73
:103F1000BC0183E00C94521F24E02093E9002FEFB2
:103F20003091E800215035FD06C035ED3A95F1F7A6
:103F300000002111F5CF2091E80025FF0BC040E0E3
:103F400050E066E070E00E94CB218091E8008E771F
:103F50008093E8000895CF93DF9321E02093E90058
:103F60002FEF3091E800215035FD06C035ED3A9530
:103F7000F1F700002111F5CF2091E80025FF14C0D2
:103F8000EC0140E050E068E070E00E94CB218091BD
:103F9000E8008E778093E80088E0FE01ACE4B2E0B0
:103FA00001900D928A95E1F7DF91CF910895CF931B
:103FB000603219F5209176022430F9F4C091E900BD
:103FC000CF703091EC00232F217030FD20E8C22B00
:103FD00022E02093E9002091E80020FF0BC040E0A0
:103FE00050E060E270E00E94CB218091E8008E7783
:103FF0008093E800CF70C093E900CF91089580913D
:104000007502811109C00E94A7230E940424809197
:10401000E20084608093E200089510927502089592
:10402000089508950C94D11B42E061EC81E00E9458
:10403000202342E261EC84E00E94202342E261EC12
:1040400082E00E94202342E260EC83E00C94202373
:1040500080917802833009F462C030F4813071F0CD
:10406000823009F49BC008958A3009F487C08B30F0
:1040700009F46DC0893009F0A9C020C08091770291
:10408000813A09F0A3C08091E800877F8093E8001F
:1040900080917B0290917C02892B21F468E08CE472
:1040A00092E003C060E080E090E070E00E94612256
:1040B0008091E8008B778093E800089580917702E3
:1040C000813209F083C080917B0290917C0200973D
:1040D00019F0029709F07AC08091E800877F8093F9
:1040E000E8008091E80082FD05C080917602811190
:1040F000F8CF6CC02091F3008091F20090E0922BF9
:10410000029729F48091F1008B7F813021F4809116
:10411000F100809354028091E8008B7753C0809126
:104120007702813A09F052C080917B0290917C0223
:10413000892B09F04BC08091E800877F8093E800CD
:104140008091E80080FFFCCF80911D0136C08091F6
:1041500077028132D9F580917B0290917C02892B84
:10416000A9F58091E800877F8093E8000E9455239D
:104170008091790280931D010C9422148091770222
:10418000813221F58091E800877F8093E8000E94CA
:10419000552380917A028093550208958091770289
:1041A000813AA1F48091E800877F8093E8008091B4
:1041B000E80080FFFCCF809155028093F100809150
:1041C000E8008E778093E8000C94552308951F93A0
:1041D000CF93DF93CDB7DEB7A0970FB6F894DEBFCD
:1041E0000FBECDBF84B7877F84BF0FB6F894A89564
:1041F00080916000886180936000109260000FBE23
:1042000090E080E80FB6F89480936100909361008D
:104210000FBE0E948F0F0E94A7230E94042480914A
:10422000E20084608093E20078940E9499260E94C4
:10423000970F83E191E00E94290F13E080917602AD
:10424000853069F40E949F1B809174028823B1F32A
:104250000E94871B882391F30E94B521EFCF0E9413
:10426000A10F80917602843049F71093E900809184
:10427000E80082FFE3CF8091E80085FF0AC040E0BC
:1042800050E060E270E0CE0101960E94162291E0BB
:1042900001C090E08091E8008B778093E80099233B
:1042A00069F260E2CE0101960E945209C7CF0C94D8
:1042B0005921292F332723303105C9F060F42130EB
:1042C000310581F02230310509F047C08BE590E0DF
:1042D00020E434E046C02132310511F122323105AB
:1042E00061F13BC082E190E02BE934E03AC09927CC
:1042F0008130910561F040F08230910559F00397CB
:1043000061F5E2EFF3E008C0ECE3F4E005C0EEE0B5
:10431000F4E002C0E8EFF3E0849190E09F0121C057
:1043200063307105D0F4660F771FFB01E656FE4F30
:104330002081318189E090E014C06330710568F418
:10434000FB01EE0FFF1FEC56FE4F20813181FB0178
:10435000EF56FE4F808190E004C080E090E020E0C6
:1043600030E0FA0131832083089580E189BD82E144
:1043700089BD09B400FEFDCF8091D8008F7D809368
:10438000D8008091E00082608093E0008091E0009E
:1043900081FDFCCF0895CF92DF92EF92FF920F93B1
:1043A0001F93CF93DF93EC018B017A010E9474235A
:1043B000811133C0E114F10439F0F701808191815A
:1043C000081B190BC80FD91FC12CD12C01151105C1
:1043D00019F18091E80085FD16C08091E8008E7784
:1043E0008093E800E114F10449F0F70180819181A4
:1043F000C80ED91ED182C08285E00FC00E947423EE
:10440000882321F30AC089918093F100015011099A
:10441000FFEFCF1ADF0ADACF80E0DF91CF911F9153
:104420000F91FF90EF90DF90CF900895CF92DF92A1
:10443000EF92FF920F931F93CF93DF93EC018B01C9
:104440007A010E947423811133C0E114F10439F020
:10445000F70180819181081B190BC80FD91FC12C4E
:10446000D12C0115110519F18091E80085FD16C0C8
:104470008091E8008B778093E800E114F10449F023
:10448000F70180819181C80ED91ED182C08285E05A
:104490000FC00E947423882321F30AC08091F10089
:1044A000899301501109FFEFCF1ADF0ADACF80E0BC
:1044B000DF91CF911F910F91FF90EF90DF90CF9000
:1044C000089520917D0230917E022617370748F02B
:1044D0006115710539F42091E8002E772093E800EA
:1044E00001C0B901FC0120E06115710579F18091ED
:1044F00076028823F1F18530F1F18091E80083FDA7
:104500003CC08091E80082FD2EC08091E80080FFD1
:10451000EBCF2091F3008091F20090E0922B611597
:10452000710551F08830910538F421912093F10004
:10453000615071090196F3CF21E0089709F020E05E
:104540008091E8008E778093E800CECF2111CFCF05
:104550000AC080917602882361F0853061F08091F5
:10456000E80083FD0AC08091E80082FFF2CF80E07E
:10457000089582E0089583E0089581E008952091F0
:104580007D0230917E022617370748F061157105CC
:1045900039F42091E8002E772093E80001C0B9019A
:1045A000FC0120E06115710591F18091760288236C
:1045B00009F440C0853009F43FC08091E80083FDD4
:1045C0003DC08091E80082FD2FC08091E80080FF0F
:1045D000E9CF2091F3008091F20090E0922B6115D9
:1045E000710559F08830910540F424912093F10031
:1045F0003196615071090196F2CF21E0089709F0D8
:1046000020E08091E8008E778093E800CBCF2111E5
:10461000CCCF0AC080917602882361F0853061F0AA
:104620008091E80083FD0AC08091E80082FFF2CF0C
:1046300080E0089582E0089583E0089581E0089580
:10464000982F973068F59093E900981739F070919A
:10465000EC002091ED005091F00003C0242F762F44
:1046600050E021FD02C09F5FECCF3091EB003E7F18
:104670003093EB003091ED003D7F3093ED003091B1
:10468000EB0031603093EB007093EC002093ED0071
:104690005093F0002091EE0027FDE5CF80E00895D3
:1046A0008F708093E90081E008958091770287FF01
:1046B00011C08091E80082FD05C0809176028111D1
:1046C000F8CF11C08091E8008B770BC08091760203
:1046D000882349F08091E80080FFF8CF8091E800BE
:1046E0008E778093E80008952091E4003091E500F2
:1046F00095E64091EC00842F817040FF23C08091AB
:10470000E80080FD1DC080917602882399F08530F5
:1047100099F08091EB0085FD11C04091E40050912B
:10472000E5002417350729F3915011F09A01E1CFE4
:1047300084E0089582E0089583E0089581E008957B
:1047400080E008954091E80042FFDDCF08950E9487
:1047500015240E941D24E0EEF0E0808181608083BA
:10476000E8EDF0E080818F77808319BCA7EDB0E0A1
:104770008C918E7F8C9380818F7E808310927502C6
:1047800008950F931F93CF93DF930E9415240E94E7
:104790001D24C8EDD0E088818F7788838881806868
:1047A000888388818F7D888319BC1092760210924D
:1047B0007202109274021092730200EE10E0F8017F
:1047C00080818B7F808388818160888342E060E084
:1047D00080E00E942023E1EEF0E080818E7F8083E4
:1047E000E2EEF0E080818160808380818860808358
:1047F000F80180818E7F8083888180618883DF914A
:10480000CF911F910F910895E8EDF0E080818F7EA8
:104810008083E7EDF0E080818160808384E082BF67
:1048200081E0809375020C94C123E8EDF0E0808173
:104830008E7F80831092E20008951092DA00109229
:10484000E10008951F920F920FB60F9211242F933B
:104850003F934F935F936F937F938F939F93AF9308
:10486000BF93EF93FF938091E10082FF0BC0809193
:10487000E20082FF07C08091E1008B7F8093E1001E
:104880000E9498268091DA0080FF1FC08091D80096
:1048900080FF1BC08091DA008E7F8093DA008091C8
:1048A000D90080FF0DC080E189BD82E189BD09B4D6
:1048B00000FEFDCF81E0809376020E94FF1F05C0BD
:1048C00019BC109276020E940D208091E10080FFB9
:1048D00019C08091E20080FF15C08091E2008E7FB8
:1048E0008093E2008091E20080618093E2008091F9
:1048F000D80080628093D80019BC85E0809376024E
:104900000E9411208091E10084FF30C08091E2007C
:1049100084FF2CC080E189BD82E189BD09B400FE1D
:10492000FDCF8091D8008F7D8093D8008091E100E9
:104930008F7E8093E1008091E2008F7E8093E20081
:104940008091E20081608093E2008091720288236E
:1049500011F084E007C08091E30087FD02C081E090
:1049600001C083E0809376020E9412208091E100D2
:1049700083FF29C08091E20083FF25C08091E10080
:10498000877F8093E10082E080937602109272022A
:104990008091E1008E7F8093E1008091E2008E7F24
:1049A0008093E2008091E20080618093E20042E027
:1049B00060E080E00E9420238091F0008860809376
:1049C000F0000E941020FF91EF91BF91AF919F9155
:1049D0008F917F916F915F914F913F912F910F90A8
:1049E0000FBE0F901F9018951F920F920FB60F9247
:1049F00011242F933F934F935F936F937F938F93E4
:104A00009F93AF93BF93CF93DF93EF93FF93C091A7
:104A1000E900CF708091EC00D82FD17080FDD0E8F4
:104A20001092E9008091F000877F8093F0007894E5
:104A30000E9438251092E9008091F00088608093F0
:104A4000F000CD2BCF70C093E900FF91EF91DF9183
:104A5000CF91BF91AF919F918F917F916F915F9116
:104A60004F913F912F910F900FBE0F901F9018956F
:104A70001F93CF93DF93CDB7DEB7AA970FB6F89405
:104A8000DEBF0FBECDBFE7E7F2E08091F10081937A
:104A900022E0EF37F207C9F70E9428208091E80052
:104AA00083FF2EC18091770290917802492F50E0C8
:104AB0004A30510508F024C1FA01E957FF4F0C9420
:104AC000C826803821F0823809F01AC108C08091C8
:104AD000730290917402992389F082600FC08091D3
:104AE0007B028F70873008F00BC18093E9008091C2
:104AF000EB0085FB882780F91092E9009091E8008F
:104B0000977F9093E8008093F1001092F100D1C05C
:104B1000282F2D7F09F0F4C0882319F0823061F02E
:104B2000EFC080917902813009F0EAC0933009F03A
:104B300080E0809374022EC08091790281112AC096
:104B400080917B028F702FEF280F263008F0D8C09D
:104B50008093E9002091EB0020FF1CC0933021F4EA
:104B60008091EB00806214C09091EB009061909373
:104B7000EB0021E030E0A90102C0440F551F8A95E7
:104B8000E2F74093EA001092EA008091EB0088601F
:104B90008093EB001092E9008091E800877F80937A
:104BA000E8000E945523ACC08111AAC0109179027F
:104BB0001F778091E3008078812B8093E3008091C0
:104BC000E800877F8093E8000E9455238091E800E9
:104BD00080FFFCCF8091E30080688093E300111197
:104BE00002C082E001C083E08093760289C08058D1
:104BF000823008F085C08091790290917A028C3DD4
:104C000053E0950779F583E08A838AE289834FB779
:104C1000F894DE01139620E03EE051E2E32FF0E04D
:104C200050935700E49120FF03C0E295EF703F5F7F
:104C3000EF708E2F90E0EA3010F0C79601C0C0965A
:104C40008D939D932F5F243149F74FBF8091E800EA
:104C5000877F8093E8006AE270E0CE0101960E94AF
:104C6000612216C060917B0270917C02AE014F5FA1
:104C70005F4F0E945721BC01892B09F441C09091DC
:104C8000E800977F9093E80089819A810E94BF2273
:104C90008091E8008B778093E80032C0803881F5FE
:104CA0008091E800877F8093E80080917202809372
:104CB000F1008091E8008E7772CF811121C0809140
:104CC000790290917A0299270297D4F48091E800B2
:104CD000877F8093E80080917902809372020E941E
:104CE000552380917202811106C08091E30087FDF7
:104CF00002C081E001C084E0809376020E9414200B
:104D00008091E80083FF0AC08091E800877F80934C
:104D1000E8008091EB0080628093EB00AA960FB6CA
:104D2000F894DEBF0FBECDBFDF91CF911F910895E4
:104D30000895CF93809176028823A1F0C091E90075
:104D4000CF709091EC00892F817090FD80E8C82B86
:104D50001092E9008091E80083FD0E943825CF7011
:104D6000C093E900CF91089597FB072E16F40094A5
:104D700007D077FD09D00E94D52607FC05D03EF468
:104D8000909581959F4F0895709561957F4F0895F7
:104D9000EE0FFF1F0590F491E02D099469279627E7
:104DA00069277827872778270895AA1BBB1B51E11D
:104DB00007C0AA1FBB1FA617B70710F0A61BB70B8B
:104DC000881F991F5A95A9F780959095BC01CD0130
:104DD0000895F999FECF92BD81BDF89A992780B5C3
:104DE0000895A8E1B0E042E050E00C941D27262F82
:104DF000F999FECF92BD81BDF89A019700B40216D1
:104E000039F01FBA20BD0FB6F894FA9AF99A0FBE7E
:104E100008950396272F0E94F8260E94F726252F33
:104E20000E94F826242F0C94F8260196272F0E9422
:104E3000F8260C94F726DC01CB01FC01F999FECF92
:104E400006C0F2BDE1BDF89A319600B40D92415012
:0A4E50005040B8F70895F894FFCF22
:104E5A0001A50100A60105A60132022808641E1454
:104E6A000A321E4F1FAB1F8C1F881F841F01E200CE
:104E7A00E900EA00B500B600B700CD008301CC0016
:104E8A008A019201940121022302240225022602A8
:104E9A0027022A02B300B4006F007000818283F5F2
:104EAA00F6F7313332366697C63435000000000013
:104EBA00E200E900EA00B500B600B700CD008301C0
:104ECA00CC008A01920194012102230224022502C4
:104EDA00260227022A02B300B4006F007000818202
:104EEA00834022815005AD04CF0452046B048B0425
:00000001FF
