:100000000C9444020C948B020C948B020C94150AF1
:100010000C948B020C948B020C948B020C948B022C
:100020000C948B020C948B020C94F21E0C94C41F43
:100030000C9461170C948B020C948B020C948B0221
:100040000C948B020C948B020C948B020C948B02FC
:100050000C948B020C94AE170C948B020C948B02B4
:100060000C948B020C948B020C948B020C948B02DC
:100070000C948B020C948B020C948B020C948B02CC
:100080000C948B020C948B020C948B020C948B02BC
:100090000C948B020C948B020C948B020C948B02AC
:1000A0000C948B020C948B020C948B025E0D5E0DF3
:1000B000900D900DDD0DFB0D1C0F1C0F060E9B0E01
:1000C000AC0EAC0E0C0F1C0F1C0F150FBC0FBC0F91
:1000D000CE0FCE0FC50FCE0FCE0FCE0FBC0FBC0F65
:1000E000CA0FCE0FCE0FCA0F3120582050215820F2
:1000F0005021A420C72050211E212D2123002200A1
:10010000210020001F001E0035001C0017001500F4
:1001100008001A0014002B002F000A000900070035
:1001200016000400E0002C000500190006001B006A
:100130001D00E1000000E300E200290000000000D3
:100140000000230024002500260027002D002E009B
:100150001C0018000C00120013002F0030003000AB
:100160000B000D000E000F003300340028001100BA
:100170001000360037003800310000000151E60061
:100180002A000000000000003F003E003D003C004F
:100190003B003A00010001000100010001000100E4
:1001A0000100010001000100010001000100010047
:1001B0000100010001000100010001000100010037
:1001C00000000100010001000000000000003F00ED
:1001D000400041004200430044004500010001008E
:1001E0000100010001000100010001004E004B0070
:1001F00001000100010046000100500051005200C2
:100200004F004A004D000000010001004C000000BA
:1002100000000000010001000100010001000100D8
:1002200001000100010001000100010001000100C6
:1002300001000100010001000100010001000100B6
:1002400001000100010001000100010000000100A7
:100250000100010000000000000001000100010099
:100260000100010001000100010001000100010086
:100270000100010001000100010001000100010076
:100280000100010001000100010001000100010066
:10029000010000000100010001000000000000005A
:1002A0000100010001000100010001000100010046
:1002B0000100010001000100010001000100010036
:1002C0000100010001000100010001000100010026
:1002D0000100010001000100000001000100010017
:1002E0000000000000000100010001000100010009
:1002F00001000100010001000100010001000100F6
:1003000001000100010001000100010001000100E5
:1003100001000100010001000100010001000000D6
:100320000100010001000000000000000403300093
:1003300000001403730070006100720072006F000F
:1003400077003800320000002C0341007400730075
:1003500075007300680069005F004D006F00720057
:1003600069006D006F0074006F005F00370034009B
:100370007400680000000403090409023B00020144
:1003800000A0FA0904000001030101000921110184
:1003900000012240000705810308000A090401004A
:1003A000010300000009211101000122810007055D
:1003B000820320000A120110010000000874DA61B3
:1003C0007401000102030105010902A1018502096E
:1003D00001A10005091901290515002501950575DB
:1003E000018102950175038101050109300931156B
:1003F00081257F95027508810609381581257F952D
:100400000175088106050C0A38021581257F9501C2
:1004100075088106C0C005010980A1018503190185
:100420002AB700150126B700950175108100C00597
:100430000C0901A101850419012AA002150126A0B9
:1004400002950175108100C005010906A10105078B
:1004500019E029E71500250195087501810295012C
:10046000750881010507190029FF150026FF009571
:100470000675088100050819012905950575019182
:1004800002950175039101C011241FBECFEFDAE080
:10049000DEBFCDBF04B603FE27C0809171029091EC
:1004A0007202A0917302B09174028730904BA74002
:1004B000B04BD1F41092710210927202109273023A
:1004C0001092740214BE84B7877F84BF0FB6F8946D
:1004D000A895809160008861809360001092600010
:1004E0000FBEE0E0F8E3099511E0A0E0B1E0ECEE2A
:1004F000F3E402C005900D92A239B107D9F722E0CA
:10050000A2E9B1E001C01D92A137B207E1F70E9454
:10051000301C0C94F4210C94000081E0089581E0DB
:1005200008950C948F0208950C9493021F93CF9317
:10053000DF9300D000D01F92CDB7DEB749835A8336
:100540006B833091B40189819A81311114C0662383
:1005500059F0222349F00E94DE14182F682F898158
:100560009A810E94871403C00E94B214182F6981D7
:100570007A81812F04C00E94DE1469817A810F90F4
:100580000F900F900F900F90DF91CF911F910C94CF
:100590004A03FC01262F408151816281738184814D
:1005A0000C949602CF93DF93EC0160E00E94C902A5
:1005B000BE01DF91CF910C9494020E94E7170E9434
:1005C0001616811102C00E94B6160C9466050C9492
:1005D000620508950E94AA0F0E94E9022FEF84E3AA
:1005E0009CE0215080409040E1F700C000000C9456
:1005F000D4170F931F93CF93DF93EC0161E00E9418
:10060000C9028C01BE010E949102882349F1BE01FA
:10061000C8010E94BC07882319F1BE01C8010E94CD
:100620000E088823E9F0BE01C8010E943909882319
:10063000B9F08A81882369F001158CE5180731F03B
:100640000E3D1C4531F40E94B6160AC00E94EA0213
:1006500007C0CE01DF91CF911F910F910C948D02B5
:1006600080E0DF91CF911F910F91089508950C9430
:10067000360381E008950C943903CF93C82F0E946C
:1006800037038C2F0E943B03CF91089580E090E0C8
:100690000895089526E4829FC0011124FC0127E0FB
:1006A000729FE00DF11D1124E60FF11DEE0FFF1FEB
:1006B000E450FF4F859194910895880F991FFC0194
:1006C000E45DFC4F859194910895CF93DF930E9450
:1006D0004A030E947D04EC018115904508F041C059
:1006E000C11580E4D80708F0D1C0C83ED10510F587
:1006F000C03ED10508F0FDC0C83AD10578F4C53A2E
:10070000D10508F0A2C0C130D10509F4F2C008F447
:10071000EEC0C430D10508F0ECC0E9C0CF3BD10534
:1007200008F49BC0C03CD10508F4E1C0CE01805C58
:1007300091099EC0C11590E2D90758F4C11521E076
:10074000D20708F0D6C0C03FD10508F4D0C0D065AC
:10075000D0C0C11580E3D80708F08EC0CE019F70CD
:1007600087C0C11595E5D90708F043C0C11524E538
:10077000D20708F0A2C0C11582E5D80708F5C11557
:1007800091E5D90708F085C0CE0174E0969587956C
:100790007A95E1F783709C2F937021E030E002C0DE
:1007A000220F331F9A95E2F73C68382BCF70C6951D
:1007B000C69580E2C89FE0011124C22BD32B99C0BB
:1007C0009E01237033278C2F86958695C115D345BE
:1007D00008F064C0C1E0D0E002C0CC0FDD1F2A9554
:1007E000E2F720E2829FC0011124C82BD92BDC68DC
:1007F00080C0C11529E5D207A0F4C11588E5D80746
:1008000008F060C0C11596E5D90708F070C08C2FBC
:100810000E9411058F71C82FD0E0DC2FCC27D06249
:1008200068C0C1152AE5D20708F451C0CE01905620
:100830008115904208F05BC08D2F8F710E941105C9
:10084000DD27D0628F71D82B54C0C55AD0E0C45B6D
:10085000DE4FC881D0E0D0644CC0C85AD0E0CC0F85
:10086000DD1FC25EDE4F0990D881C02DD46441C027
:100870000E945D03EC013DC0CE019927D3FF03C068
:10088000EC01D86C36C0EC01D06C33C0DF70D06A9C
:1008900030C0DC2FCC27C16FD06A2BC0C1E0D0E0C4
:1008A00002C0CC0FDD1F2A95E2F720E2829FC00133
:1008B0001124C82BD92BDA681CC0DC2FCC27C46FBD
:1008C000D06A17C0DC2FCC27C06FD06A12C08C2F23
:1008D0008F700E94110594E0D695C7959A95E1F71F
:1008E000CF70D0E0DC2FCC27D069C82B02C0C0E08D
:1008F000D0E0CE01DF91CF9108958238910569F162
:10090000B0F48133910509F46DC048F48932910542
:1009100009F463C08A32910509F469C008958533EA
:10092000910509F455C089339105B9F00895833EC6
:10093000910569F138F4803E9105B1F0823E910550
:1009400009F10895863E9105A9F1873E9105B9F117
:10095000843E910509F064C023C02091620220FD0D
:100960004FC021FD4DC008958091620280FD44C0BA
:100970008091630280FF44C08091620284FD42C086
:1009800083EE4DC08091620282FF38C0F5CF809126
:10099000620282FD33C08091630280FD31C0ECCFE2
:1009A0008091630281FF32C08091620284FD2AC07F
:1009B00087EE35C08091620283FF26C0F5CF80911B
:1009C000620283FD21C08091630281FD1FC0ECCFD4
:1009D0008091620285FD1CC01DC08091620285FD70
:1009E00019C016C08091620286FD16C017C08091A2
:1009F000620286FD13C010C089E311C082EE0FC0F1
:100A000080EE0DC080E00BC086EE09C084EE07C00A
:100A100089E205C085E303C08AE201C081E390E07A
:100A200008959091620292FF0DC0282F28712830FE
:100A300019F4877F846006C0282F2471243011F4B4
:100A40008B7F886093FF0DC0282F2871283119F4FF
:100A5000877E846106C0282F2471243111F48B7E97
:100A600088612091630220FF0DC0382F3871383023
:100A700019F4877F816006C0382F3171313011F44D
:100A80008E7F886021FF0DC0282F2871283119F42E
:100A9000877E816106C0282F2171213111F48E7E5D
:100AA000886194FD877E0895E82FF0E0EE5AFD4FAF
:100AB00080810895089580EA8A95F1F70895089550
:100AC0000C945F050C9460050C945F050C94640510
:100AD0000895CF93DF930E94DD06809100018091FD
:100AE0000001811102C095E001C090E090935D0289
:100AF00085E0891B80935C02A6E5B1E04BE551E0FF
:100B000061E070E08D91E82FE295EF70F0E021A1B7
:100B10008F70EB0102C0CC0FDD1F8A95E2F7CE018A
:100B20009C2F9095922391A392A1892B82A34A177F
:100B30005B0741F7AFE4B1E046E551E061E070E00A
:100B40008D91E82FE295EF70F0E021A18F70EB011D
:100B500002C0CC0FDD1F8A95E2F7CE019C2F909545
:100B6000922391A392A1892B82A34A175B0741F795
:100B7000E8E4F2E0A2E5B2E082E592E011921D9293
:100B80008E179F07D9F785E00E9483060E94DD0239
:100B9000DF91CF910C94E7060E94C006882309F1EB
:100BA00080915C0290E08E5A9D4F0E94FA0681115E
:100BB00014C0809192018F5F80939201863078F00B
:100BC000E0915C02F0E0EE5AFD4F80E090E011927F
:100BD000019685309105D9F702C0109292010C94CC
:100BE000E70280915D0290E08E5A9D4F0E941507AA
:100BF0000C9468056F927F928F929F92AF92BF92F2
:100C0000CF92DF92EF92FF920F931F93CF93DF93D8
:100C100086E5882E81E0982E08E412E09DE4A92E56
:100C200092E0B92E712CCC24C394D12CF401819183
:100C30004F01C82FC295CF70D0E099A18F70760177
:100C400001C0EE0C8A95EAF7892F8E2989A38AA123
:100C50006E2C609486218AA30E945B05EFE4F1E08C
:100C600040E050E020E03191A32FA295AF70B0E0BA
:100C700090968C9190E03F7002C0959587953A953B
:100C8000E2F780FD07C08C2D042E01C0880F0A9466
:100C9000EAF701C080E0282B4F5F5F4F47305105D6
:100CA00011F789A1682269A28AA1E82AEAA2F801BB
:100CB0008081281719F0208381E001C080E0782A24
:100CC0000F5F1F4FA016B10609F0B0CF60915D0213
:100CD00070E06E5A7D4F272D45E088E492E00E9437
:100CE00084060E94CC05872DDF91CF911F910F9133
:100CF000FF90EF90DF90CF90BF90AF909F908F903C
:100D00007F906F9008950895FF920F931F93CF9354
:100D1000DF938C01F62ED72FC42F222349F081E0D8
:100D2000809395010E94931790939401809393016F
:100D3000809195018823C1F0809193019091940155
:100D40000E949F17069780F0EF2DFD2FD8014C2FA2
:100D500050E0CD01801B910B841795071CF48D91F9
:100D60008193F7CF10929501DF91CF911F910F9151
:100D7000FF90089584988C988FB182958170089522
:100D800080919601811112C08091D800806180937A
:100D9000D8008AE18A95F1F700C08091D90080FDE2
:100DA00002C082E001C081E08093960181E09091D1
:100DB0009601913009F080E008950E94BA06809370
:100DC00000010E94C00681110C94EE0608950E9455
:100DD000C006811102C00C94F406089561E070E031
:100DE00081E091E00C94C70961E070E081E091E05E
:100DF0000C94CE09CF93DF93D82FC92F0E94660A97
:100E0000892B79F4ED2FFC2F80E090E0DC01A856CF
:100E1000BE4F2C912193019685309105B9F781E061
:100E200001C080E0DF91CF91089520E030E0FC0127
:100E30004191CF01F901E856FE4F40832F5F3F4FAC
:100E400025303105A1F70895AF92BF92CF92DF927E
:100E5000EF92FF920F931F93CF93DF937C015B017F
:100E6000C42FD22FFC0182818823F9F040939F0187
:100E70000E94931790939E0180939D0180E28C0FB6
:100E8000883008F06EC0C77081E001C0880FCA9535
:100E9000EAF7DF91CF911F910F91FF90EF90DF90D4
:100EA000CF90BF90AF900C941A0D80919F01481382
:100EB00035C080919D0190919E010E949F176C0109
:100EC000B701C5010E944912C816D90638F510E2CB
:100ED0001D0FCD17B9F080E28C0F883040F4C77039
:100EE00081E001C0880FCA95EAF70E94210D1830F1
:100EF00058F581E09D2F977001C0880F9A95EAF709
:100F00000E941A0D802F0E94070D183050F5D770DF
:100F100081E001C0880FDA95EAF70AC080E28C0F01
:100F20008830F8F4C77081E001C0880FCA95EAF7ED
:100F3000DF91CF911F910F91FF90EF90DF90CF90B5
:100F4000BF90AF900C94210D802FDF91CF911F9116
:100F50000F91FF90EF90DF90CF90BF90AF900C94E7
:100F6000070DDF91CF911F910F91FF90EF90DF90D0
:100F7000CF90BF90AF9008950F939C01CB01233F7A
:100F80004CE5340731F188F4283DFCE53F07D9F002
:100F9000293D4CE5340779F1273D3C45A9F506E2AA
:100FA00021EE41EE67ED7CE52BC0253FFCE53F07D8
:100FB000E1F0A8F0263F3C4539F507E225EE46EE84
:100FC00066EF7CE51DC007E225EE45EE68ED7CE5A9
:100FD00017C006E221EE40EE63EF7CE511C007E2A8
:100FE00025EE44EE64EF7CE50BC006E221EE42EE16
:100FF00065EF7CE505C008E221E045EE69ED7CE5A2
:101000000E94240780E008C0FC018281882319F037
:1010100010929F0101C081E00F910895CF93DF935B
:10102000EC01FB018281882309F41FC1C230FCE579
:10103000DF0708F41BC1C6319CE5D90738F09E01D3
:101040002A5F3C452930310508F010C10E9429165D
:101050009093630280936202C031ECE5DE0709F4ED
:10106000C3C008F041C0C8308CE5D80709F49AC065
:10107000F0F4C430ECE5DE0709F487C068F4C23050
:101080008CE5D80709F477C0C330DC4509F0E3C02C
:1010900080916202826076C0C630ECE5DE0709F41A
:1010A0006EC008F07BC08091620288606BC0CC305B
:1010B0008CE5D80709F485C068F4CA30ECE5DE0792
:1010C00009F474C008F079C00E94AA0F80916202EE
:1010D000806858C0CE308CE5D80709F476C008F097
:1010E0007FC0809162028BC0CB3FECE5DE0709F444
:1010F0004FC018F5C3318CE5D80709F47DC078F4EA
:10110000C131ECE5DE0709F473C0C231DC4509F0FA
:10111000A2C00E94AA0F809162028F7733C0C531AE
:101120008CE5D80709F472C008F486C0CA3FDC45D4
:1011300009F091C0809163023EC0CF3FFCE5DF071C
:1011400009F45FC058F4CD3F9CE5D90709F444C0C9
:1011500008F43FC08091630282602DC0C130FDE57C
:10116000DF0709F475C008F45DC0C230DD4509F041
:1011700072C080E06EC080916202816003C0809185
:10118000620280618093620266C08091620211C037
:10119000809163028260809363025DC080916202ED
:1011A0008062F0CF809162028064ECCF8091620215
:1011B00088608460E7CF8160EECF809162028E7F8D
:1011C000E1CF809162028D7FDDCF80916202877FC7
:1011D000D9CF8091630218C0809163028D7FDBCFED
:1011E000809162028F7ECECF809162028F7DCACFC6
:1011F000809162028F7BC6CF80916202877F8B7F56
:10120000C1CF809163028D7F8E7FC5CF80916202B6
:1012100082FB222720F991E0922790FB82F990FB34
:1012200083F9B0CF80916302982F909591708E7F53
:10123000892B90FB81F9AFCF0E94AA0F80916202A7
:1012400087FB222720F991E0922790FB87F99ACF1C
:1012500081E00E94B81680916202909163020E9420
:101260003A160E94AA0F80E001C081E0DF91CF9181
:101270000895CF93DF9386319C4541F5EB010E94A1
:101280005F15982F8A812091090130910A018823E6
:1012900079F09A7A81E009F480E08093A0019111BD
:1012A00002C069E201C065E3C9010E94FF160AC0DD
:1012B0008091A001811102C069E201C065E3C9010A
:1012C0000E9401170E94AD1580E001C081E0DF910E
:1012D000CF9108958EE14A9B02C08150E1F74A9B6D
:1012E000FECF08955A9880E28A95F1F75A9A0895A8
:1012F000FC012AE02A95F1F728E090E080E031E057
:1013000040E14A95F1F7880F4A9B02C0816093271C
:1013100000C0000040E14A95F1F7215089F720E133
:101320002A95F1F729B100C0000030E13A95F1F7B4
:1013300022FB222720F992272081920F9083089583
:10134000EF92FF920F931F93CF93DF931F92CDB72E
:10135000DEB719828C017C01E60EF11C0E151F050B
:1013600051F00E946A09CE0101960E947809F801A5
:1013700081938F01F3CF81E09981911180E00F90EB
:10138000DF91CF911F910F91FF90EF90089590936F
:10139000A2018093A101529A5A9A08959093A201B2
:1013A0008093A10152985A9AEA9AE9E6F0E0808186
:1013B0008F7C80830895615091E001C0990F6A95F8
:1013C000EAF720E031E0992361F0492F482319F032
:1013D0005A9A232701C05A9840E24A95F1F7969508
:1013E000F2CF222311F05A9A01C05A9880E28A95CE
:1013F000F1F75A980895FF920F931F93CF93DF93BD
:10140000EC018C01060F111DC017D10741F0F990B6
:101410000E94720968E08F2D0E94DB09F5CFDF91F1
:10142000CF911F910F91FF9008951F920F920FB6C9
:101430000F9211242F933F934F935F936F937F935A
:101440008F939F93AF93BF93CF93DF93EF93FF93CC
:101450005A98529AC091A101D091A2016D81662340
:1014600021F08E819F810E94FB090E94720980E118
:101470008A95F1F75A9852985A9A80E18A95F1F72D
:101480006A81662351F08B819C810E94A009E881CA
:10149000F981811104C082E003C0E881F98188E00C
:1014A00080830E946A09FF91EF91DF91CF91BF91F4
:1014B000AF919F918F917F916F915F914F913F91EC
:1014C0002F910F900FBE0F901F901895CF93DF9321
:1014D000C091A101D091A201F894529A5A9885E046
:1014E0008A95F1F7000052985A9A80E28A95F1F7AE
:1014F0004A9B0AC0529A5A9AE881F98181E0808316
:10150000789481E090E02CC06D81662381F08E811B
:101510009F810E94A00981110AC0529A5A9AE881BB
:10152000F98182E08083789482E090E019C00E9483
:101530006A0980E28A95F1F75A98529A80E18A9571
:10154000F1F76A81662321F08B819C810E94FB095F
:101550000E947209E881F9811082789480E090E01D
:10156000DF91CF9108959093A8018093A7010895EA
:10157000E091A701F091A801309721F00190F0814E
:10158000E02D099480E00895E091A701F091A80171
:10159000309721F00280F381E02D09940895E091C5
:1015A000A701F091A801309739F022E0DC012C93DB
:1015B0000480F581E02D099408952091A5013091D2
:1015C000A6012817390771F09093A6018093A50111
:1015D000E091A701F091A801309721F00680F781F2
:1015E000E02D099408952091A3013091A4012817BA
:1015F000390771F09093A4018093A301E091A701B2
:10160000F091A801309721F00084F185E02D099434
:10161000089585B7806885BF85B7806885BF0895C0
:1016200008950C94100B0C94110B0C94100B0C944B
:10163000100B0E94090B0E94150B0C94130B0C94B9
:10164000C0060E948A170E9469050E94FB170C942D
:10165000170BAF92BF92CF92DF92EF92FF920F9350
:101660001F93CF93DF93CDB7DEB72A970FB6F894C9
:10167000DEBF0FBECDBF0E94FA050E941F0B811175
:1016800011C08FEF89838A831B820E949317816028
:10169000782F9D838C8349815A816B818D810E9433
:1016A000C10B40C08AEAA82E81E0B82E00E010E00D
:1016B000C02E802F0E945405E82EF501D1905F01C5
:1016C000D82631F40F5F1F4F0A30110589F7D9CFA3
:1016D00080912F0281FD0E945A0580E0FF24F3943F
:1016E0009D2D9F21D1F08E83CF82EF2081E009F4E0
:1016F00080E088870E9493178160782F9A87898776
:101700004E815F8168858A850E94C10BF801E6558C
:10171000FE4F8081F826F08205C08F5FFF0C873076
:10172000F9F6D0CF0E94AA190E94B80A9091A90197
:101730008917B1F00E94B80A8093A9012A960FB6C2
:10174000F894DEBF0FBECDBFDF91CF911F910F91F7
:10175000FF90EF90DF90CF90BF90AF900C943D033F
:101760002A960FB6F894DEBF0FBECDBFDF91CF91A2
:101770001F910F91FF90EF90DF90CF90BF90AF90AF
:101780000895CF93DF93CDB7DEB72B970FB6F894BC
:10179000DEBF0FBECDBF4F83588769877A878B879F
:1017A000DE01119686E0FD0111928A95E9F785E048
:1017B000FE01379601900D928A95E1F749815A8191
:1017C0006B817C818D819E810E944C122B960FB67D
:1017D000F894DEBF0FBECDBFDF91CF910895FC011D
:1017E000808191810E9420150895CF93882309F468
:1017F000A4C0C82F8238C1F40E94B80A81FD9DC0E0
:1018000069E38091090190910A010E94FF160E94EC
:10181000AD152FEF81EE94E0215080409040E1F72C
:1018200000C0000069E319C0833801F50E94B80ABE
:1018300080FD83C063E58091090190910A010E94B7
:10184000FF160E94AD152FEF81EE94E021508040ED
:101850009040E1F700C0000063E58091090190919C
:101860000A010E940117CF910C94AD158438C1F480
:101870000E94B80A82FD61C067E4809109019091DD
:101880000A010E94FF160E94AD152FEF81EE94E031
:10189000215080409040E1F700C0000067E4DDCFB8
:1018A0008CEF8C0F813AD0F46C2F809109019091CC
:1018B0000A010E94C916882349F06C2F8091090102
:1018C00090910A010E9401170E94AD156C2F809122
:1018D000090190910A010E94FF16C5CF80E28C0F8A
:1018E000883048F4C77081E001C0880FCA95EAF7D4
:1018F0000E946215B8CFEBE5EC0FE33040F4F0E066
:10190000E257FE4F808190E0CF910C94DD0AE8E52C
:10191000EC0FE73150F4F0E0EE0FFF1FE05AFE4FFE
:1019200080819181CF910C94F30AC03F30F08C2FCD
:101930000E949F18CF910C948C19CF910895882301
:1019400009F464C0823879F40E94B80A81FF5EC04D
:1019500069E38091090190910A010E94FF160E949B
:10196000AD1569E310C08338B1F40E94B80A80FF56
:101970004DC063E58091090190910A010E94FF1614
:101980000E94AD1563E58091090190910A010E94C2
:1019900001170C94AD15843879F40E94B80A82FFBF
:1019A00035C067E48091090190910A010E94FF16F9
:1019B0000E94AD1567E4E7CF9CEF980F913A10F4C1
:1019C000682FE1CF90E2980F983050F4877091E043
:1019D00001C0990F8A95EAF7892F0E946815D9CF1F
:1019E0009BE5980F933020F480E090E00C94DD0AA2
:1019F00098E5980F973120F480E090E00C94F30A7A
:101A0000803F20F00E9407190C948C190895CF9301
:101A1000C82F0E94F50BC93349F42FEF87EE93E0EE
:101A2000215080409040E1F700C000008C2FCF9102
:101A30000C949F0C882321F00E9462150C94AD1524
:101A40000895882321F00E9468150C94AD1508951F
:101A5000CF92DF92EF92FF920F931F93CF93DF937A
:101A60007C01062FC72FFC01158112951F70D281B2
:101A7000D1110E947F150E945815882399F0DD230B
:101A800089F08C2F807F803421F080E2800F8830B5
:101A900048F082E00E94F7150E94581591E0D82E78
:101AA000D92601C0D12CCC2EC2948FE0C8228C2D17
:101AB00090E0FC01EA5AFF4F0C9498218C2F807F14
:101AC000CF70882311F0C295C07FDD2399F0CC231D
:101AD00009F48DC180E2800F883010F0011104C03C
:101AE0008C2F0E94621503C08C2F0E9472150E94D9
:101AF000AD157DC1802F0E949F0CCC2309F49CC1A1
:101B000080E2800F883010F0011104C08C2F0E94F9
:101B1000681503C08C2F0E9478150E94AD158CC1EA
:101B20008C2F807FCF70803211F0C295C07F002350
:101B300019F00130C9F022C0DD2371F0112341F00A
:101B4000113031F40E9492158C2B0E949A1574C1A9
:101B50000E9492158C2B1DC0112319F0113009F42D
:101B60006BC10E94A31525C0DD2321F0163008F0BB
:101B700063C10EC0153008F05FC11BC0DD2361F0EA
:101B8000112331F0F701858180FF31C18F7085838A
:101B90008C2F0E941A0D50C1112359F0093309F0FE
:101BA00037C1FFEF27EE83E0F15020408040E1F79E
:101BB0002DC18C2F0E94210D3FC18C2F86958695BB
:101BC000837019F0813061F037C1DD2321F0802F5F
:101BD0009C2F937002C080E090E00E94DD0A34C127
:101BE000DD2321F0802F9C2F937002C080E090E0D5
:101BF0000E94F30A29C1802FDD2319F00E949F184B
:101C000002C00E9407190E948C191EC18C2F83707C
:101C100009F045C0D11114C1402F42954695477037
:101C2000440F440F602F6F70862F90E0A0E0B0E06B
:101C3000042E04C0880F991FAA1FBB1F0A94D2F755
:101C400004FF10C00FE010E020E030E004C0000FFF
:101C5000111F221F331F4A95D2F70095109520952A
:101C6000309503C000E010E09801C695C695C3709A
:101C7000BC01CD01602B712B822B932BC23049F01C
:101C800058F4C13019F00E949D13DAC00E948B13E2
:101C9000D7C00E94AF13D4C00E948913D1C0DD23E6
:101CA00019F08C2F817001C08695882309F4C8C073
:101CB000402F429546954770440F440F602F6F7038
:101CC000862F90E0A0E0B0E0042E04C0880F991F9A
:101CD000AA1FBB1F0A94D2F704FF10C00FE010E048
:101CE00020E030E004C0000F111F221F331F4A956F
:101CF000D2F7009510952095309503C000E010E0D4
:101D00009801C695C695C370BC01CD01602B712B9F
:101D1000822B932BC23049F058F4C13019F00E9445
:101D200062148EC00E9450148BC00E94741488C02C
:101D30000E94C31385C0CF70DD2339F08C2F0E9421
:101D4000E913802F0E941A0D7BC0802F0E94210D65
:101D50008C2F0E940A1474C0023F01F128F4003F46
:101D600041F0013FA1F03FC0033FF9F0043F39F1DA
:101D70003AC0DD2341F0153008F05EC08C2F8F7122
:101D80000E942F1459C0163008F056C0F7CFDD233B
:101D900039F08C2F8F710E94E9134EC0DD23C9F3F7
:101DA0008C2F8F710E940A1447C0DD2329F08C2FDD
:101DB0008F710E94D41340C00E94CF133DC0DD2319
:101DC00049F0CF718C2F0E94E91363E08C2F0E94A1
:101DD000E21532C081E00E94F715123068F182E00E
:101DE0000E94F71529C0DD2331F0112391F2802FD5
:101DF0000E94F50B21C0112399F2093349F49FEF9A
:101E0000E7EEF3E09150E040F040E1F700C0000061
:101E1000802F0E949F0C10C04C2F4F70602FC70165
:101E20000E9446030E94FA120FC04C2F4F70602F81
:101E3000C7010E94490308C088EF8C0D843020F44C
:101E40000E94B80A0E943D03DD20C9F00E9454158B
:101E500080FD15C0F70112820E944E150E94E91301
:101E6000C7010E94600F0E944E15DF91CF911F9114
:101E70000F91FF90EF90DF90CF900C940A14DF91B8
:101E8000CF911F910F91FF90EF90DF90CF90089529
:101E90000F931F93CF93DF93EC01688179818A813F
:101EA0000E942B158C010E9486140E947713B801A2
:101EB000CE010E94280DDF91CF911F910F910895BF
:101EC000CF93DF93EC01988189812B813C81232B77
:101ED00031F08F3F31F481E09F3F19F403C081E07E
:101EE00001C080E080FD19C0CE010E94F90281117D
:101EF0000CC00E945815882381F08A81882369F0DC
:101F000082E0DF91CF910C94F715CE010E94480F2B
:101F1000CE01DF91CF910C94D202DF91CF91089541
:101F20000E947F150E948F150E94AD150E94BD1A58
:101F30000E948C1980E090E00E94DD0A80E090E031
:101F40000C94F30A8091090190910A010E940317F1
:101F50000C94900F0E946F150C94A20FE92FE2953C
:101F6000EF704E2F50E0FA013297EE30F105B0F4E9
:101F7000EA59FF4F0C949821803F91F018F4883E65
:101F800068F40EC0843F51F40BC0883E48F0813F96
:101F900029F406C093FB882780F9089580E008950E
:101FA00081E008950E9420150E94AE0F0895CF93FE
:101FB000DF9300D000D01F92CDB7DEB70F900F9007
:101FC0000F900F900F90DF91CF910895CF93DF93F3
:101FD00000D000D000D0CDB7DEB726960FB6F8946B
:101FE000DEBF0FBECDBFDF91CF9108951F93CF937A
:101FF000DF93C091B50116E08091B601C81799F042
:10200000D0E01C9FF0011D9FF00D1124E954FE4FFC
:102010004081518162817381848195810E94E60FA4
:102020002196C770E9CFDF91CF911F91089540911C
:10203000E7015091E8016091E9017091EA01809116
:10204000EB019091EC010C94E60F0F931F93CF934B
:10205000DF938091EC0182958F7009F05DC08091D3
:10206000E901882309F458C08091B5011091B601A7
:102070006091E7017091E801C091EA01D091EB0114
:1020800091E06F3F09F090E0292F06E0811709F4F5
:1020900043C0209721F07F3F21F030E003C031E0C2
:1020A00001C0322F90E030FD34C0089FF001099F3D
:1020B000F00D1124DF01A954BE4F11963C911197E8
:1020C000371327C03C91361324C012963C911297C7
:1020D00031111FC013964D915C9114974C1B5D0BF1
:1020E000443B5105B0F48091EC018F708061809386
:1020F000EC01E454FE4F80818F708061808387EE15
:1021000091E00E94600FDF91CF911F910F910C948D
:10211000F60F01968770BACFDF91CF911F910F9183
:1021200008959F92AF92BF92CF92DF92EF92FF926B
:102130000F931F93CF93DF93CDB7DEB761970FB6A1
:10214000F894DEBF0FBECDBF8C0185E0F801DE0143
:102150001D9601900D928A95E1F7F8014081518119
:10216000E2809091E7016091E8012091EA013091CD
:10217000EB012115310531F06F3F31F481E09F3FD4
:1021800019F403C081E001C080E0F82FF1709F2EA8
:1021900080FD2CC1F801A380B48087EEC82E81E0B9
:1021A000D82EF090E901F501E21BF30BFF2009F4B2
:1021B000EBC08091EC01E43BF10508F0A7C0282FAB
:1021C000207F09F052C0561313C0491311C0FE2CD2
:1021D000E1100EC08F7080618093EC010E94171097
:1021E000C6010E94600F8091EC01F80185833EC119
:1021F000AB2831F05F3F31F481E04F3F19F403C069
:1022000081E001C080E080FD03C081E08E2502C036
:1022100080E090E0F82FF170FF2E80FF1CC08091CD
:10222000B5012091B60136E0821709F4FDC090E0B7
:10223000389FF001399FF00D1124E954FE4F618160
:10224000561306C06081461303C06281E61203C0C4
:1022500001968770E9CFFE2CEE2009F407C180912A
:10226000EC0181608093EC0166C0561312C04913E3
:1022700010C0E1100EC0F8018583C8010E94600FF4
:1022800086E0F801A7EEB1E001900D928A95E1F7A2
:10229000C8C04D875E878D859E850E94D20F88239A
:1022A00079F1EE2069F12091EC01822F82958F70F7
:1022B00090E0029774F08091E7019091E80198878F
:1022C0008F831986BB86AA862C87CE0107960E942B
:1022D000600F86E0F801A7EEB1E001900D928A95BB
:1022E000E1F70E9425100E9417100DC0561729F122
:1022F0004D875E878D859E850E94D20F81112CC0EF
:10230000C8010E94600FFF24F394B0C0282F207FE3
:1023100069F77A2DB98AA88A6E2D89890E94D70F0C
:1023200087EE91E00E94600F86E0F60111928A9597
:10233000E9F70E941710F12C99C04913D9CFE11089
:10234000D7CFF8018583C8010E94600F86E0F601AF
:1023500011928A95E9F78AC0EE2091F22091EC0162
:10236000822F82958F7090E002970CF4B2CF80910B
:10237000E7019091E8019A8389831B82BD82AC8238
:102380002E83CE010196A3CFE43BF10510F5FE2C80
:10239000EE2009F4B5CF56130BC0491309C086E0EF
:1023A000F801A7EEB1E001900D928A95E1F75EC0C9
:1023B0004D875E878D859E850E94D20F811189CFC2
:1023C0008091EC0181608093EC01C8010E94600F54
:1023D0004DC07A2DB98AA88A6E2D89890E94D70F9F
:1023E00086E0F60111928A95E9F71BC0EE2009F408
:1023F00087CF4D875E878D859E850E94D20FF82EF0
:10240000882309F47DCF86E0F801A7EEB1E00190C2
:102410000D928A95E1F787EE91E00E94EF0B0E9402
:1024200025100E94171022C04D875E878D859E85DE
:102430000E942015292F22952F70223028F49F709A
:1024400039F0811105C00BC0243028F49F7049F485
:10245000805E883020F0C8010E94600F9F2CF92C0C
:1024600005C0F8019581907F99F7F9CF8F2D61967E
:102470000FB6F894DEBF0FBECDBFDF91CF911F9195
:102480000F91FF90EF90DF90CF90BF90AF909F9013
:10249000089584EB90E008951F93CF93DF93CDB719
:1024A000DEB72C970FB6F894DEBF0FBECDBF4F83BB
:1024B000588769877A878B879C87CE0107960E9409
:1024C00091108823D1F09F8188852A853B85232B15
:1024D00031F08F3F31F481E09F3F19F403C081E078
:1024E00001C080E080FD47C04F81588569857A85AD
:1024F0008B859C850E94E60F3EC086E0FE013796E4
:10250000DE01119601900D928A95E1F7FF81E88531
:102510006A857B856115710531F0EF3F31F481E00B
:10252000FF3F19F403C081E001C080E080FD23C0BB
:102530002091B60130E0C90101968770992740913A
:10254000B50150E084179507F1F1F983EA837D83A3
:102550006C8396E0929FD001939FB00D1124A954F3
:10256000BE4FFE01319601900D929A95E1F780934E
:10257000B6010E94F60F16E08091B5019091B60168
:10258000891771F1189FC001112489549E4F0E9430
:102590009110882329F1E091B5011E9FF0011124CB
:1025A000E954FE4F4081518162817381848195811C
:1025B0000E94E60F8091B50190E0019687709927FF
:1025C0008093B501D9CF0E94AA0F1092B601109244
:1025D000B501E7EEF1E086E0DF011D928A95E9F7AB
:1025E0002C960FB6F894DEBF0FBECDBFDF91CF9112
:1025F0001F910895EF92FF920F931F93CF93DF9354
:102600008C01892B09F46CC0F12CEE24E394E801D1
:102610002196F8018491843740F4843008F051C049
:10262000813081F0823019F15BC0853709F444C0F4
:10263000A8F19CE7980F903708F052C08F770E945E
:102640009F0C41C00E5F1F4FFE01849190E2980FD6
:10265000983050F48770FE2D01C0FF0F8A95EAF77D
:102660008F2F0E94821514C00E94F50B2DC00E5FA3
:102670001F4FFE01849190E2980F983060F48770AC
:10268000FE2D01C0FF0F8A95EAF78F2F0E94881553
:102690000E94AD1519C00E949F0C16C00E5F1F4FFF
:1026A000FE01C491CC2381F08FE99FE00197F1F7FF
:1026B00000C00000C150F6CF0E5F1F4FFE01F49026
:1026C00003C00E94F50B8E018F2D882309F49FCF44
:1026D000EFE9FFE03197F1F700C000008150F5CF3E
:1026E000DF91CF911F910F91FF90EF900895089582
:1026F00008950C9478130C9479130E947B136093C3
:102700001E0270931F0280932002909321020C946A
:10271000900F0C947D130F931F9300911E02109144
:102720001F022091200230912102602B712B822BFD
:10273000932B1F910F910C947D130F931F93009176
:102740001E0210911F02209120023091210260236D
:102750007123822393231F910F910C947D130F9368
:102760001F9300911E0210911F02209120023091B0
:10277000210260277127822793271F910F910C94C4
:102780007D130C9478130E94C11360931A02709306
:102790001B0280931C0290931D020C94900F60E02A
:1027A00070E0CB010C94C3130F931F9341E050E0F2
:1027B00060E070E08A019B0104C0000F111F221F1E
:1027C000331F8A95D2F7C901B8011F910F910C945C
:1027D000C3130F931F9341E050E060E070E004C02A
:1027E000440F551F661F771F8A95D2F780911A02F2
:1027F00090911B02A0911C02B0911D028A019B01C5
:10280000082B192B2A2B3B2BC901B8011F910F91C3
:102810000C94C3130F931F9341E050E060E070E00D
:1028200004C0440F551F661F771F8A95D2F7409545
:1028300050956095709580911A0290911B02A0911D
:102840001C02B0911D028A019B01082319232A232F
:102850003B23C901B8011F910F910C94C3130F932F
:102860001F9341E050E060E070E004C0440F551F4A
:10287000661F771F8A95D2F780911A0290911B02EA
:10288000A0911C02B0911D028A019B010827192703
:102890002A273B27C901B8011F910F910C94C3133C
:1028A0000F931F9300911A0210911B0220911C029A
:1028B00030911D02602B712B822B932B1F910F9156
:1028C0000C94C3130F931F9300911A0210911B02D3
:1028D00020911C0230911D026023712382239323D7
:1028E0001F910F910C94C3130F931F9300911A0221
:1028F00010911B0220911C0230911D02602771274C
:10290000822793271F910F910C94C313089527E0FA
:10291000929F800D1124E82FE695E695E695877045
:1029200051E001C0550F8A95EAF785E0E89FF00174
:102930001124E351FE4F20E030E070E04081CB01F4
:10294000022E02C0969587950A94E2F781708195D0
:1029500084278523842781932F5F3F4F25303105BE
:1029600069F7089527E0929F800D1124682F6695DE
:1029700066956695982F977085E0689FB001112441
:1029800040E050E080E0FB01E40FF51FE351FE4F13
:10299000208130E0092E02C0369527950A94E2F78F
:1029A00021703327042E01C0220F0A94EAF7822BEC
:1029B0004F5F5F4F4530510531F70895BF92CF9279
:1029C000DF92EF92FF920F931F93CF93DF938C01CF
:1029D000C0901A02D0901B02E0901C02F0901D02E1
:1029E00080911E0290911F02A0912002B0912102BD
:1029F000C82AD92AEA2AFB2ACFE1D0E0D701C601AA
:102A00000C2E04C0B695A795979587950A94D2F792
:102A100080FD04C0219790F7B12C07C0BC2EB801EF
:102A20008C2F0E9465030197A9F38B2DDF91CF9125
:102A30001F910F91FF90EF90DF90CF90BF9008957E
:102A4000CF93DF93EC010E94DE14BE010E94650368
:102A5000DF91CF9108951F93CF93DF93EB01909176
:102A6000B401992321F0CB010E94201513C08823C3
:102A700049F0CB010E94DE14182F682FCE010E946E
:102A8000871404C0CB010E94B214182FBE01812FFD
:102A90000E946503DF91CF911F91089580912202DA
:102AA0008595859585950895809122028770089572
:102AB00090912202977081E009F480E0089580915E
:102AC0002E02089590912E02892B80932E02089554
:102AD000809590912E02892380932E020895109262
:102AE0002E02089590912D02892B80932D02089536
:102AF000809590912D02892380932D020895109244
:102B00002D02089590912C02892B80932C02089518
:102B1000809590912C02892380932C020895109225
:102B20002C02089580912302089508950C94951520
:102B30000C94961590912302981721F0809323020C
:102B40000C949815089580912302882329F01092FF
:102B5000230280E00C9498150895E0910901F0910A
:102B60000A0180912E028083E0910901F0910A010F
:102B7000908180912D02892B8083E0910901F09151
:102B80000A01908180912C02892B808380912302FD
:102B9000882381F0E0910901F0910A019081892B4D
:102BA00080838091090190910A010E94BD168111D4
:102BB0000E94A3158091090190910A010C94C40A06
:102BC0000C94951598E0899F90011124262B209351
:102BD00022020E94E91380912202859585958595B0
:102BE0000C94E0151092220280E00C94E0152091E4
:102BF00022028095822380932202982F977079F485
:102C000030E0482F082E000C550B2417350739F0FB
:102C10008595859585950E940A140C94F215089562
:102C20006FEF7FEF80E090E00C94DE2180E090E099
:102C30000E94BA2121E08C3E9E4F09F020E0822FB5
:102C4000089582E090E00C94B22183E090E00C942F
:102C5000B221CF9384E090E00E94B221C82F81E29C
:102C600090E00E94B2212C2F30E0A901582BCA011C
:102C7000CF910895CF93C92F682F84E090E00E94F0
:102C8000C0216C2F81E290E0CF910C94C021AB0168
:102C9000BC018FE090E00C94D221AB01BC0183E138
:102CA00090E00C94D22160E070E0CB010C944D16C2
:102CB00060E070E0CB010E9447160C9453166CEE56
:102CC0007EEF80E090E00E94DE2160E082E090E014
:102CD0000E94C02160E083E090E00E94C021109239
:102CE0001E0210921F02109220021092210260E038
:102CF00084E090E00E94C02160E081E290E00E94C8
:102D0000C02160E085E090E00E94C02160E086E0A4
:102D100090E00E94C0216FEF87E090E00E94C02108
:102D200040E050E0BA0188E090E00E94D22160E0EB
:102D30008DE090E00E94C02140E050E0BA0188E1BF
:102D400090E00E94D22160E087E190E00E94C021E3
:102D500040E050E0BA018CE190E00E94D22160E0B6
:102D600080E290E00E94C0210C9458160C945F16EB
:102D7000682F8EE090E00C94C021FC01329697E021
:102D800080E0915029F021912223D9F38F5FF9CF70
:102D90000895662349F0FC01329608962191621746
:102DA00029F0E817F907D1F780E0089581E0089548
:102DB0009C01FC0132969FEF80E04191461789F01B
:102DC0009F3F19F4411101C0982F8F5F8630A9F7FA
:102DD0009F3F39F0F901E90FF11D97FDFA956283E4
:102DE000089508959C012A5F3F4FFC0142814613DC
:102DF00001C01282019682179307B9F708950C94C7
:102E0000D8160C94F216029626E0FC0111922A952F
:102E1000E9F7089508950C940A170C940A17CF93B4
:102E20000E940D170E94FA050E940B17C0E08C2F1C
:102E30000E945405811104C0CF5FCA30C1F701C0A0
:102E400081E0CF9108950C940A170C9423170E94E7
:102E5000251780916802843049F11092300220E4F5
:102E600088E190E00FB6F894A895809360000FBEBB
:102E70002093600080E00E943D030E94251783B7E5
:102E8000817F846083BF83B7816083BF7894889596
:102E900083B78E7F83BF0FB6F894A89580916000AA
:102EA000886180936000109260000FBE08950C94BA
:102EB0000A170E94AA0F0E94B80A0E943D030C94B0
:102EC00057171F920F920FB60F9211248F939F9353
:102ED000AF93BF9380913002811113C080915E0245
:102EE00090915F02A0916002B09161024196A11D94
:102EF000B11D80935E0290935F02A0936002B09335
:102F00006102BF91AF919F918F910F900FBE0F9073
:102F10001F90189582E084BD93E095BD9AEF97BD10
:102F200080936E0008952FB7F89480915E0290917F
:102F30005F02A0916002B09161022FBF08959C01D1
:102F40004FB7F89480915E0290915F02A091600269
:102F5000B09161024FBF821B930B089578941F922A
:102F60000F920FB60F9211248F939F93AF93BF933D
:102F700080915E0290915F02A0916002B091610227
:102F80000196A11DB11D80935E0290935F02A093F4
:102F90006002B0936102BF91AF919F918F910F90AA
:102FA0000FBE0F901F90189587E797E79093010841
:102FB000809300089AE088E10FB6F894A895809372
:102FC00060000FBE90936000FFCF0C9410160E941B
:102FD000FA058FE39CE90197F1F700C000000E9419
:102FE000FA0580E00E94540580FF04C00E94E517A6
:102FF0000C94D41708950E941616811102C00E94E5
:10300000B6160E94211680932F020E9429169093D3
:103010006302809362020E942516682F70E080E0B0
:1030200090E00E94891360911A0270911B028091B6
:103030001C0290911D020C94C1138091370280FFF5
:103040000BC06091100185E0689FB0011124759557
:103050006795759567952BC081FF09C06091100138
:1030600085E0689FB00111247595679520C082FFA7
:1030700007C06091100185E0689FB001112417C05E
:10308000909136029923D1F060910F01961788F73D
:103090002091100185E0289F90011124929FA001AA
:1030A000939F500D112470E0CA010E948421603862
:1030B000710540F46115710519F406C065E070E012
:1030C000862F08958FE7089581E008958091370253
:1030D00080FF08C060910C0170E07595679575954B
:1030E000679521C081FF06C060910C0170E0759565
:1030F000679519C082FF04C060910C0170E010C098
:1031000090913502992399F060910B019617A0F7E1
:1031100080910C01899FC001112470E00E948421DC
:103120006038710540F46115710519F406C061E05D
:1031300070E0862F08958FE7089581E00895803F1D
:1031400021F40E941D18819504C0813F29F40E943A
:103150001D1880933B020895823F21F40E941D18A0
:10316000819504C0833F29F40E941D1880933A0280
:103170000895893F19F40E94661805C08A3F31F40A
:103180000E946618819580933C0208958B3F21F43C
:103190000E946618819504C08C3F29F40E9466182D
:1031A00080933D020895843F21F48091390281602B
:1031B00017C0853F21F480913902826011C0863F9B
:1031C00021F48091390284600BC0873F21F4809103
:1031D0003902886005C0883F31F4809139028061EE
:1031E0008093390208958D3F21F4809137028160E8
:1031F0000BC08E3F21F480913702826005C08F3F63
:1032000029F4809137028460809337020895803FCB
:1032100039F480913B0287FF6AC010923B0267C07D
:10322000813F29F480913B021816BCF360C0909155
:103230003A02823F29F497FF5AC010923A0257C0CF
:10324000833F19F41916CCF352C090913C02893F88
:1032500031F419160CF04BC010923C0248C08A3F62
:1032600019F497FF44C0F8CF8B3F39F480913D02A9
:1032700087FF3DC010923D023AC08C3F29F48091F7
:103280003D021816BCF333C0843F21F4809139020B
:103290008E7F17C0853F21F4809139028D7F11C048
:1032A000863F21F4809139028B7F0BC0873F21F448
:1032B00080913902877F05C0883F31F480913902BF
:1032C0008F7E8093390213C08D3F21F480913702A5
:1032D0008E7F0BC08E3F21F4809137028D7F05C019
:1032E0008F3F29F4809137028B7F80933702809142
:1032F0003A02811106C080913B02811102C01092F6
:10330000360280913C02811106C080913D028111FC
:1033100002C01092350208950E94931720913A023C
:10332000211104C020913B02222321F0909334020A
:103330008093330220913C02211104C020913D0270
:10334000222321F0909332028093310288E392E0AD
:103350000C94CF0AEF92FF920F931F93CF93DF93BA
:1033600000D000D000D0CDB7DEB786E0E8E3F2E0D1
:10337000DE01119601900D928A95E1F7E0903A02F4
:10338000F0903B0200913C0210913D0210923A02F3
:1033900010923B0210923C0210923D02E11003C0D9
:1033A000FF2009F45DC080913302909134020E94A5
:1033B0009F17AC0190913602992339F020911101A9
:1033C00030E02417350758F04BC0209112018AE0F5
:1033D000289F900111242417350718F041C09F3F02
:1033E00019F09F5F90933602EE2061F00E941D1845
:1033F0001E1414F09FEF01C091E0989F902D1124AE
:1034000090933A02FF2061F00E941D181F1414F0DF
:103410009FEF01C091E0989F902D112490933B0263
:1034200030913A023323E1F020913B022223C1F094
:1034300045EB3403C0011124992319F090933A020B
:1034400003C081E080933A0235EB2303C0011124CD
:10345000992319F090933B0203C081E080933B02D3
:10346000011103C0112309F45DC0809131029091D4
:1034700032020E949F17AC0190913502992339F0D6
:1034800020910D0130E02417350758F04BC02091F2
:103490000E018AE0289F900111242417350718F0A7
:1034A00041C09F3F19F09F5F90933502002361F068
:1034B0000E946618101614F09FEF01C091E0989FCB
:1034C000902D112490933C02112361F00E94661804
:1034D000111614F09FEF01C091E0989F902D1124D8
:1034E00090933D0230913C023323E1F020913D0264
:1034F0002223C1F045EB3403C0011124992319F0B4
:1035000090933C0203C081E080933C0235EB23039F
:10351000C0011124992319F090933D0203C081E06A
:1035200080933D0280913A0281110BC080913B0251
:10353000811107C080913C02811103C080913D023E
:1035400081110E948C19EB82FC820D831E8386E020
:10355000FE013196A8E3B2E001900D928A95E1F761
:1035600026960FB6F894DEBF0FBECDBFDF91CF9188
:103570001F910F91FF90EF900895E8E3F2E086E04D
:10358000DF011D928A95E9F71092360210923502FA
:10359000109237020895809146020895CF93DF93E9
:1035A00000D01F92CDB7DEB790916802943019F524
:1035B00089837B836A8382E08093E9008FEF909117
:1035C000E800815095FD06C095ED9A95F1F7000051
:1035D0008111F5CF8091E80085FF0DC040E050E0FB
:1035E00063E070E0CE0101960E94E61C8091E80045
:1035F0008E778093E8000F900F900F90DF91CF911E
:103600000895BC0184E00C94CE1ABC0183E00C94B4
:10361000CE1A22E02093E9002FEF3091E8002150EC
:1036200035FD06C035ED3A95F1F700002111F5CFD3
:103630002091E80025FF0BC040E050E066E070E01C
:103640000E94E61C8091E8008E778093E800089540
:10365000CF93DF9321E02093E9002FEF3091E80032
:10366000215035FD06C035ED3A95F1F700002111E6
:10367000F5CF2091E80025FF14C0EC0140E050E0B8
:1036800068E070E00E94E61C8091E8008E778093ED
:10369000E80088E0FE01AEE3B2E001900D928A9569
:1036A000E1F7DF91CF91089580916702811109C000
:1036B0000E94771E0E94D41E8091E2008460809355
:1036C000E2000895109267020895089508950C94F9
:1036D000591742E061EC81E00E94F01D42E261EC8A
:1036E00082E00C94F01D80916A02833009F460C07E
:1036F00030F4813071F0823009F499C008958A3035
:1037000009F485C08B3009F46BC0893009F0A7C07B
:1037100020C080916902813A09F0A1C08091E8003F
:10372000877F8093E80080916D0290916E02892BD3
:1037300021F468E08EE392E003C060E080E090E076
:1037400070E00E94311D8091E8008B778093E80043
:10375000089580916902813209F081C080916D02E3
:1037600090916E02029708F07AC08091E800877FFE
:103770008093E8008091E80082FD05C08091680296
:103780008111F8CF6CC02091F3008091F20090E09D
:10379000922B029729F48091F1008B7F813021F4E4
:1037A0008091F100809346028091E8008B7753C0AE
:1037B00080916902813A09F052C080916D02909126
:1037C0006E02892B09F04BC08091E800877F8093BF
:1037D000E8008091E80080FFFCCF80911D0136C099
:1037E000809169028132D9F580916D0290916E02CB
:1037F000892BA9F58091E800877F8093E8000E94DB
:10380000251E80916B0280931D010C94AA0F80915C
:103810006902813221F58091E800877F8093E8007A
:103820000E94251E80916C0280934702089580912A
:103830006902813AA1F48091E800877F8093E800D3
:103840008091E80080FFFCCF809147028093F100D7
:103850008091E8008E778093E8000C94251E0895EF
:1038600084B7877F84BF0FB6F894A89580916000D5
:10387000886180936000109260000FBE90E080E845
:103880000FB6F89480936100909361000FBE0E9480
:10389000190B0E94771E0E94D41E8091E200846062
:1038A0008093E20078940E9469210E94210B83E1B9
:1038B00091E00E94B30A80916802853069F40E9409
:1038C0002717809166028823B1F30E940F1788237F
:1038D00091F30E94D01CEFCF0E94290BECCF0C94E7
:1038E000711C292F332723303105C9F060F42130B2
:1038F000310581F02230310509F04AC08BE390E0B8
:103900002AE733E049C02132310511F12232310575
:1039100079F13EC082E190E025EB33E03DC099278C
:103920008130910561F040F08230910559F00397A4
:1039300079F5ECE2F3E008C0E6E7F3E005C0E8E47F
:10394000F3E002C0E2E3F3E0849190E09F0124C041
:103950006115710541F061307105D1F489E090E0A5
:1039600025EA33E019C089E090E02CE833E014C088
:103970006115710541F06130710551F481E890E005
:1039800027EC33E009C080E490E028E434E004C090
:1039900080E090E020E030E0FA0131832083089558
:1039A00080E189BD82E189BD09B400FEFDCF80912F
:1039B000D8008F7D8093D8008091E0008260809352
:1039C000E0008091E00081FDFCCF0895CF92DF926E
:1039D000EF92FF920F931F93CF93DF93EC018B0134
:1039E0007A010E94441E811133C0E114F10439F0C0
:1039F000F70180819181081B190BC80FD91FC12CB9
:103A0000D12C0115110519F18091E80085FD16C032
:103A10008091E8008E778093E800E114F10449F08A
:103A2000F70180819181C80ED91ED182C08285E0C4
:103A30000FC00E94441E882321F30AC089918093FD
:103A4000F10001501109FFEFCF1ADF0ADACF80E051
:103A5000DF91CF911F910F91FF90EF90DF90CF906A
:103A6000089520916F02309170022617370748F0B1
:103A70006115710539F42091E8002E772093E80054
:103A800001C0B901FC0120E06115710579F1809157
:103A900068028823F1F18530F1F18091E80083FD1F
:103AA0003CC08091E80082FD2EC08091E80080FF3C
:103AB000EBCF2091F3008091F20090E0922B611502
:103AC000710551F08830910538F421912093F1006F
:103AD000615071090196F3CF21E0089709F020E0C9
:103AE0008091E8008E778093E800CECF2111CFCF70
:103AF0000AC080916802882361F0853061F080916E
:103B0000E80083FD0AC08091E80082FFF2CF80E0E8
:103B1000089582E0089583E0089581E0089520915A
:103B20006F02309170022617370748F06115710552
:103B300039F42091E8002E772093E80001C0B90104
:103B4000FC0120E06115710591F1809168028823E4
:103B500009F440C0853009F43FC08091E80083FD3E
:103B60003DC08091E80082FD2FC08091E80080FF79
:103B7000E9CF2091F3008091F20090E0922B611543
:103B8000710559F08830910540F424912093F1009B
:103B90003196615071090196F2CF21E0089709F042
:103BA00020E08091E8008E778093E800CBCF211150
:103BB000CCCF0AC080916802882361F0853061F023
:103BC0008091E80083FD0AC08091E80082FFF2CF77
:103BD00080E0089582E0089583E0089581E00895EB
:103BE000982F973068F59093E900981739F0709105
:103BF000EC002091ED005091F00003C0242F762FAF
:103C000050E021FD02C09F5FECCF3091EB003E7F82
:103C10003093EB003091ED003D7F3093ED0030911B
:103C2000EB0031603093EB007093EC002093ED00DB
:103C30005093F0002091EE0027FDE5CF80E008953D
:103C40008F708093E90081E008958091690287FF79
:103C500011C08091E80082FD05C080916802811149
:103C6000F8CF11C08091E8008B770BC0809168027B
:103C7000882349F08091E80080FFF8CF8091E80028
:103C80008E778093E80008952091E4003091E5005C
:103C900095E64091EC00842F817040FF23C0809115
:103CA000E80080FD1DC080916802882399F085306E
:103CB00099F08091EB0085FD11C04091E400509196
:103CC000E5002417350729F3915011F09A01E1CF4F
:103CD00084E0089582E0089583E0089581E00895E6
:103CE00080E008954091E80042FFDDCF08950E94F2
:103CF000E51E0E94ED1EE0EEF0E080818160808391
:103D0000E8EDF0E080818F77808319BCA7EDB0E00B
:103D10008C918E7F8C9380818F7E8083109267023E
:103D200008950F931F93CF93DF930E94E51E0E9487
:103D3000ED1EC8EDD0E088818F7788838881806808
:103D4000888388818F7D888319BC109268021092C5
:103D50006402109266021092650200EE10E0F80113
:103D600080818B7F808388818160888342E060E0EE
:103D700080E00E94F01DE1EEF0E080818E7F808384
:103D8000E2EEF0E0808181608083808188608083C2
:103D9000F80180818E7F8083888180618883DF91B4
:103DA000CF911F910F910895E8EDF0E080818F7E13
:103DB0008083E7EDF0E080818160808384E082BFD2
:103DC00081E0809367020C94911EE8EDF0E0808121
:103DD0008E7F80831092E20008951092DA00109294
:103DE000E10008951F920F920FB60F9211242F93A6
:103DF0003F934F935F936F937F938F939F93AF9373
:103E0000BF93EF93FF938091E10082FF0BC08091FD
:103E1000E20082FF07C08091E1008B7F8093E10088
:103E20000E9468218091DA0080FF1FC08091D80035
:103E300080FF1BC08091DA008E7F8093DA00809132
:103E4000D90080FF0DC080E189BD82E189BD09B440
:103E500000FEFDCF81E0809368020E94541B05C0E4
:103E600019BC109268020E94621B8091E10080FFE1
:103E700019C08091E20080FF15C08091E2008E7F22
:103E80008093E2008091E20080618093E200809163
:103E9000D80080628093D80019BC85E080936802C6
:103EA0000E94661B8091E10084FF30C08091E20097
:103EB00084FF2CC080E189BD82E189BD09B400FE88
:103EC000FDCF8091D8008F7D8093D8008091E10054
:103ED0008F7E8093E1008091E2008F7E8093E200EC
:103EE0008091E20081608093E200809164028823E7
:103EF00011F084E007C08091E30087FD02C081E0FB
:103F000001C083E0809368020E94671B8091E100FA
:103F100083FF29C08091E20083FF25C08091E100EA
:103F2000877F8093E10082E08093680210926402B0
:103F30008091E1008E7F8093E1008091E2008E7F8E
:103F40008093E2008091E20080618093E20042E091
:103F500060E080E00E94F01D8091F0008860809316
:103F6000F0000E94651BFF91EF91BF91AF919F916F
:103F70008F917F916F915F914F913F912F910F9012
:103F80000FBE0F901F9018951F920F920FB60F92B1
:103F900011242F933F934F935F936F937F938F934E
:103FA0009F93AF93BF93CF93DF93EF93FF93C09112
:103FB000E900CF708091EC00D82FD17080FDD0E85F
:103FC0001092E9008091F000877F8093F000789450
:103FD0000E9408201092E9008091F0008860809390
:103FE000F000CD2BCF70C093E900FF91EF91DF91EE
:103FF000CF91BF91AF919F918F917F916F915F9181
:104000004F913F912F910F900FBE0F901F901895D9
:104010001F93CF93DF93CDB7DEB7AA970FB6F8946F
:10402000DEBF0FBECDBFE9E6F2E08091F1008193E3
:1040300022E0E137F207C9F70E94731B8091E80084
:1040400083FF2EC18091690290916A02492F50E04E
:104050004A30510508F024C1FA01EC58FF4F0C9486
:104060009821803821F0823809F01AC108C0809167
:10407000650290916602992389F082600FC0809159
:104080006D028F70873008F00BC18093E90080913A
:10409000EB0085FB882780F91092E9009091E800F9
:1040A000977F9093E8008093F1001092F100D1C0C7
:1040B000282F2D7F09F0F4C0882319F0823061F099
:1040C000EFC080916B02813009F0EAC0933009F0B3
:1040D00080E0809366022EC080916B0281112AC01D
:1040E00080916D028F702FEF280F263008F0D8C016
:1040F0008093E9002091EB0020FF1CC0933021F455
:104100008091EB00806214C09091EB0090619093DD
:10411000EB0021E030E0A90102C0440F551F8A9551
:10412000E2F74093EA001092EA008091EB00886089
:104130008093EB001092E9008091E800877F8093E4
:10414000E8000E94251EACC08111AAC010916B022C
:104150001F778091E3008078812B8093E30080912A
:10416000E800877F8093E8000E94251E8091E80088
:1041700080FFFCCF8091E30080688093E300111101
:1041800002C082E001C083E08093680289C0805849
:10419000823008F085C080916B0290916C028C3D5A
:1041A00053E0950779F583E08A838AE289834FB7E4
:1041B000F894DE01139620E03EE051E2E32FF0E0B8
:1041C00050935700E49120FF03C0E295EF703F5FEA
:1041D000EF708E2F90E0EA3010F0C79601C0C096C5
:1041E0008D939D932F5F243149F74FBF8091E80055
:1041F000877F8093E8006AE270E0CE0101960E941A
:10420000311D16C060916D0270916E02AE014F5F5C
:104210005F4F0E946F1CBC01892B09F441C0909133
:10422000E800977F9093E80089819A810E948F1D12
:104230008091E8008B778093E80032C0803881F568
:104240008091E800877F8093E800809164028093EA
:10425000F1008091E8008E7772CF811121C08091AA
:104260006B0290916C0299270297D4F48091E80038
:10427000877F8093E80080916B02809364020E94A4
:10428000251E80916402811106C08091E30087FDA4
:1042900002C081E001C084E0809368020E94691B33
:1042A0008091E80083FF0AC08091E800877F8093B7
:1042B000E8008091EB0080628093EB00AA960FB635
:1042C000F894DEBF0FBECDBFDF91CF911F9108954F
:1042D0000895CF93809168028823A1F0C091E900EE
:1042E000CF709091EC00892F817090FD80E8C82BF1
:1042F0001092E9008091E80083FD0E940820CF70B1
:10430000C093E900CF91089597FB072E16F400940F
:1043100007D077FD09D00E949E2107FC05D03EF40E
:10432000909581959F4F0895709561957F4F089561
:10433000EE0FFF1F0590F491E02D0994AA1BBB1B03
:1043400051E107C0AA1FBB1FA617B70710F0A61B95
:10435000B70B881F991F5A95A9F780959095BC01B6
:10436000CD010895F999FECF92BD81BDF89A9927A4
:1043700080B50895A8E1B0E042E050E00C94E62159
:10438000262FF999FECF92BD81BDF89A019700B40E
:10439000021639F01FBA20BD0FB6F894FA9AF99AAE
:1043A0000FBE08950396272F0E94C1210E94C021AD
:1043B000252F0E94C121242F0C94C1210196272F63
:1043C0000E94C1210C94C021DC01CB01FC01F999B0
:1043D000FECF06C0F2BDE1BDF89A319600B40D9251
:0C43E00041505040B8F70895F894FFCF0A
:1043EC0001970100980105980124022808641E1405
:1043FC000A321ECB1A281B091B051B011B01E200EC
:10440C00E900EA00B500B600B700CD008301CC008E
:10441C008A01920194012102230224022502260220
:10442C0027022A02B300B4006F007000818283F56A
:10443C00F6F7313332366697C6343500000000008B
:10444C00E200E900EA00B500B600B700CD00830138
:10445C00CC008A019201940121022302240225023C
:10446C00260227022A02B300B4006F00700081827A
:02447C008300BB
:00000001FF
